ARM Linker, 4.1 [Build 894] [Professional (MDK + RL-ARM)]

==============================================================================

Section Cross References

    main.o(.text) refers to stm32f2xx_rcc.o(.text) for RCC_AHB1PeriphClockCmd
    main.o(.text) refers to stm32f2xx_dma.o(.text) for DMA_Init
    main.o(.text) refers to stm32f2xx_gpio.o(.text) for GPIO_Init
    main.o(.text) refers to stm32f2xx_adc.o(.text) for ADC_CommonInit
    main.o(.text) refers to usart.o(.text) for USART_NVIC_Config
    main.o(.text) refers to printfa.o(i.__0printf) for __2printf
    main.o(.text) refers to ffltui.o(.text) for __aeabi_ui2f
    main.o(.text) refers to fdiv.o(.text) for __aeabi_fdiv
    main.o(.text) refers to f2d.o(.text) for __aeabi_f2d
    main.o(.text) refers to dmul.o(.text) for __aeabi_dmul
    main.o(.text) refers to d2f.o(.text) for __aeabi_d2f
    main.o(.text) refers to ddiv.o(.text) for __aeabi_ddiv
    main.o(.text) refers to main.o(.data) for ADC_ConvertedValue
    main.o(.text) refers to main.o(.constdata) for .constdata
    stm32f2xx_it.o(.text) refers to stm32f2xx_usart.o(.text) for USART_GetITStatus
    stm32f2xx_it.o(.text) refers to printfa.o(i.__0printf) for __2printf
    stm32f2xx_it.o(.text) refers to stm32f2xx_gpio.o(.text) for GPIO_ResetBits
    usart.o(.text) refers to stm32f2xx_rcc.o(.text) for RCC_AHB1PeriphClockCmd
==============================================================================

Removing Unused input sections from the image.

    Removing stm32f10x_systick.o(.text), (154 bytes).
    Removing systick.o(.text), (204 bytes).
    Removing systick.o(.data), (5 bytes).
    Removing tim_conf.o(.text), (172 bytes).
    Removing startup_stm32f2xx.o(HEAP), (512 bytes).
    Removing stm32f2xx_tim.o(.text), (3130 bytes).
    Removing core_cm3.o(.emb_text), (32 bytes).

7 unused section(s) (total 4209 bytes) removed from the image.

==============================================================================

Image Symbol Table

    Local Symbols

    Symbol Name                              Value     Ov Type        Size  Object(Section)

    ../../microlib/d2f.c                     0x00000000   Number         0  d2f.o ABSOLUTE
    ../../microlib/division.c                0x00000000   Number         0  uidiv.o ABSOLUTE
    ../../microlib/division.c                0x00000000   Number         0  uldiv.o ABSOLUTE
    ../../microlib/f2d.c                     0x00000000   Number         0  f2d.o ABSOLUTE
    ../../microlib/fpadd.c                   0x00000000   Number         0  dadd.o ABSOLUTE
    ../../microlib/fpdiv.c                   0x00000000   Number         0  ddiv.o ABSOLUTE
    ../../microlib/fpdiv.c                   0x00000000   Number         0  fdiv.o ABSOLUTE
    ../../microlib/fpepilogue.c              0x00000000   Number         0  depilogue.o ABSOLUTE
    ../../microlib/fpepilogue.c              0x00000000   Number         0  fepilogue.o ABSOLUTE
    ../../microlib/fpfix.c                   0x00000000   Number         0  dfixul.o ABSOLUTE
    ../../microlib/fpflt.c                   0x00000000   Number         0  ffltui.o ABSOLUTE
    ../../microlib/fpmul.c                   0x00000000   Number         0  dmul.o ABSOLUTE
    ../../microlib/init/entry.s              0x00000000   Number         0  entry.o ABSOLUTE
    ../../microlib/init/entry.s              0x00000000   Number         0  entry2.o ABSOLUTE
    ../../microlib/init/entry.s              0x00000000   Number         0  entry5.o ABSOLUTE
    ../../microlib/init/entry.s              0x00000000   Number         0  entry7a.o ABSOLUTE
    ../../microlib/init/entry.s              0x00000000   Number         0  entry7b.o ABSOLUTE
    ../../microlib/init/entry.s              0x00000000   Number         0  entry8.o ABSOLUTE
    ../../microlib/longlong.c                0x00000000   Number         0  llsshr.o ABSOLUTE
    ../../microlib/longlong.c                0x00000000   Number         0  llushr.o ABSOLUTE
    ../../microlib/longlong.c                0x00000000   Number         0  llshl.o ABSOLUTE
    ../../microlib/printf/printf.c           0x00000000   Number         0  printfa.o ABSOLUTE
    ../../microlib/printf/printf.c           0x00000000   Number         0  printf1.o ABSOLUTE
    ../../microlib/printf/printf.c           0x00000000   Number         0  printf0.o ABSOLUTE
    ../../microlib/printf/printf.c           0x00000000   Number         0  printf6.o ABSOLUTE
    ../../microlib/printf/printf.c           0x00000000   Number         0  printf7.o ABSOLUTE
    ../../microlib/printf/printf.c           0x00000000   Number         0  printfb.o ABSOLUTE
    ../../microlib/printf/printf.c           0x00000000   Number         0  printf8.o ABSOLUTE
    ../../microlib/printf/printf.c           0x00000000   Number         0  printf2.o ABSOLUTE
    ../../microlib/printf/printf.c           0x00000000   Number         0  printf3.o ABSOLUTE
    ../../microlib/printf/printf.c           0x00000000   Number         0  printf4.o ABSOLUTE
    ../../microlib/printf/printf.c           0x00000000   Number         0  printf5.o ABSOLUTE
    ../../microlib/printf/stubs.s            0x00000000   Number         0  stubs.o ABSOLUTE
    ../../microlib/stubs.s                   0x00000000   Number         0  useno.o ABSOLUTE
    ../../microlib/stubs.s                   0x00000000   Number         0  iusefp.o ABSOLUTE
    ..\Libraries\CMSIS\CM3\CoreSupport\core_cm3.c 0x00000000   Number         0  core_cm3.o ABSOLUTE
    ..\Libraries\CMSIS\CM3\DeviceSupport\ST\STM32F2xx\startup\arm\startup_stm32f2xx.s 0x00000000   Number         0  startup_stm32f2xx.o ABSOLUTE
    ..\Libraries\CMSIS\CM3\DeviceSupport\ST\STM32F2xx\system_stm32f2xx.c 0x00000000   Number         0  system_stm32f2xx.o ABSOLUTE
    ..\Libraries\STM32F2xx_StdPeriph_Driver\src\misc.c 0x00000000   Number         0  misc.o ABSOLUTE
    ..\Libraries\STM32F2xx_StdPeriph_Driver\src\stm32f2xx_adc.c 0x00000000   Number         0  stm32f2xx_adc.o ABSOLUTE
    ..\Libraries\STM32F2xx_StdPeriph_Driver\src\stm32f2xx_dma.c 0x00000000   Number         0  stm32f2xx_dma.o ABSOLUTE
    ..\Libraries\STM32F2xx_StdPeriph_Driver\src\stm32f2xx_gpio.c 0x00000000   Number         0  stm32f2xx_gpio.o ABSOLUTE
    ..\Libraries\STM32F2xx_StdPeriph_Driver\src\stm32f2xx_rcc.c 0x00000000   Number         0  stm32f2xx_rcc.o ABSOLUTE
    ..\Libraries\STM32F2xx_StdPeriph_Driver\src\stm32f2xx_tim.c 0x00000000   Number         0  stm32f2xx_tim.o ABSOLUTE
    ..\Libraries\STM32F2xx_StdPeriph_Driver\src\stm32f2xx_usart.c 0x00000000   Number         0  stm32f2xx_usart.o ABSOLUTE
    ..\User\SysTick\stm32f10x_systick.c      0x00000000   Number         0  stm32f10x_systick.o ABSOLUTE
    ..\User\SysTick\systick.c                0x00000000   Number         0  systick.o ABSOLUTE
    ..\User\main.c                           0x00000000   Number         0  main.o ABSOLUTE
    ..\User\stm32f2xx_it.c                   0x00000000   Number         0  stm32f2xx_it.o ABSOLUTE
    ..\User\usart.c                          0x00000000   Number         0  usart.o ABSOLUTE
    ..\\Libraries\\CMSIS\\CM3\\CoreSupport\\core_cm3.c 0x00000000   Number         0  core_cm3.o ABSOLUTE
    cdrcmple.s                               0x00000000   Number         0  cdrcmple.o ABSOLUTE
    dc.s                                     0x00000000   Number         0  dc.o ABSOLUTE
    handlers.s                               0x00000000   Number         0  handlers.o ABSOLUTE
    init.s                                   0x00000000   Number         0  init.o ABSOLUTE
    tim_conf.c                               0x00000000   Number         0  tim_conf.o ABSOLUTE
    RESET                                    0x08000000   Section      388  startup_stm32f2xx.o(RESET)
    .ARM.Collect$$$$00000000                 0x08000184   Section        0  entry.o(.ARM.Collect$$$$00000000)
    .ARM.Collect$$$$00000001                 0x08000184   Section        4  entry2.o(.ARM.Collect$$$$00000001)
    .ARM.Collect$$$$00000004                 0x08000188   Section        4  entry5.o(.ARM.Collect$$$$00000004)
    .ARM.Collect$$$$00000008                 0x0800018c   Section        0  entry7b.o(.ARM.Collect$$$$00000008)
    .ARM.Collect$$$$00000009                 0x0800018c   Section        8  entry8.o(.ARM.Collect$$$$00000009)
    .ARM.Collect$$$$00002712                 0x08000194   Section        4  entry2.o(.ARM.Collect$$$$00002712)
    __lit__00000000                          0x08000194   Data           4  entry2.o(.ARM.Collect$$$$00002712)
    .text                                    0x08000198   Section        0  main.o(.text)
    .text                                    0x080003c4   Section        0  stm32f2xx_it.o(.text)
    .text                                    0x08000474   Section        0  usart.o(.text)
    .text                                    0x08000574   Section       36  startup_stm32f2xx.o(.text)
    .text                                    0x08000598   Section        0  stm32f2xx_gpio.o(.text)
    .text                                    0x080007e4   Section        0  stm32f2xx_rcc.o(.text)
    .text                                    0x08000d68   Section        0  stm32f2xx_usart.o(.text)
    .text                                    0x08001188   Section        0  stm32f2xx_adc.o(.text)
    .text                                    0x080015e8   Section        0  stm32f2xx_dma.o(.text)
    .text                                    0x0800198c   Section        0  misc.o(.text)
    .text                                    0x08001a70   Section        0  system_stm32f2xx.o(.text)
    SetSysClock                              0x08001a71   Thumb Code   170  system_stm32f2xx.o(.text)
    .text                                    0x08001c3c   Section        0  fdiv.o(.text)
    .text                                    0x08001cbc   Section        0  dmul.o(.text)
    .text                                    0x08001d9c   Section        0  ddiv.o(.text)
    .text                                    0x08001e7a   Section        0  ffltui.o(.text)
    .text                                    0x08001e84   Section        0  f2d.o(.text)
    .text                                    0x08001eb0   Section        0  d2f.o(.text)
    .text                                    0x08001ee8   Section        0  uidiv.o(.text)
    .text                                    0x08001f14   Section        0  uldiv.o(.text)
    .text                                    0x08001f76   Section        0  iusefp.o(.text)
    .text                                    0x08001f76   Section        0  fepilogue.o(.text)
    .text                                    0x08001fe2   Section        0  depilogue.o(.text)
    .text                                    0x080020a0   Section        0  dadd.o(.text)
    .text                                    0x080021ec   Section        0  dfixul.o(.text)
    .text                                    0x0800221c   Section       40  cdrcmple.o(.text)
    .text                                    0x08002244   Section       36  init.o(.text)
    .text                                    0x08002268   Section        0  llshl.o(.text)
    .text                                    0x08002286   Section        0  llushr.o(.text)
    .text                                    0x080022a6   Section        0  llsshr.o(.text)
    i.__0printf                              0x080022cc   Section        0  printfa.o(i.__0printf)
    i.__scatterload_copy                     0x080022ec   Section       14  handlers.o(i.__scatterload_copy)
    i.__scatterload_null                     0x080022fa   Section        2  handlers.o(i.__scatterload_null)
    i.__scatterload_zeroinit                 0x080022fc   Section       14  handlers.o(i.__scatterload_zeroinit)
    i._fp_digits                             0x0800230c   Section        0  printfa.o(i._fp_digits)
    _fp_digits                               0x0800230d   Thumb Code   324  printfa.o(i._fp_digits)
    i._printf_core                           0x08002464   Section        0  printfa.o(i._printf_core)
    _printf_core                             0x08002465   Thumb Code  1782  printfa.o(i._printf_core)
    i._printf_post_padding                   0x08002b68   Section        0  printfa.o(i._printf_post_padding)
    _printf_post_padding                     0x08002b69   Thumb Code    38  printfa.o(i._printf_post_padding)
    i._printf_pre_padding                    0x08002b8e   Section        0  printfa.o(i._printf_pre_padding)
    _printf_pre_padding                      0x08002b8f   Thumb Code    48  printfa.o(i._printf_pre_padding)
    .constdata                               0x08002bc0   Section       69  main.o(.constdata)
    .data                                    0x20000000   Section        6  main.o(.data)
    .data                                    0x20000008   Section        4  usart.o(.data)
    .data                                    0x2000000c   Section       16  stm32f2xx_rcc.o(.data)
    APBAHBPrescTable                         0x2000000c   Data          16  stm32f2xx_rcc.o(.data)
    .data                                    0x2000001c   Section       20  system_stm32f2xx.o(.data)
    STACK                                    0x20000030   Section     1024  startup_stm32f2xx.o(STACK)

    Global Symbols

    Symbol Name                              Value     Ov Type        Size  Object(Section)

    BuildAttributes$$THM_ISAv4$P$D$K$B$S$PE$A:L22UL41UL21$X:L11$S22US41US21$IEEE1$IW$USESV6$~STKCKD$USESV7$~SHL$OTIME$ROPI$EBA8$MICROLIB$REQ8$PRES8$EABIv2 0x00000000   Number         0  anon$$obj.o ABSOLUTE
    __ARM_use_no_argv                        0x00000000   Number         0  main.o ABSOLUTE
    __use_no_errno                           0x00000000   Number         0  useno.o ABSOLUTE
    __use_no_exception_handling              0x00000000   Number         0  useno.o ABSOLUTE
    __use_no_fp                              0x00000000   Number         0  useno.o ABSOLUTE
    __use_no_heap                            0x00000000   Number         0  useno.o ABSOLUTE
    __use_no_heap_region                     0x00000000   Number         0  useno.o ABSOLUTE
    __use_no_semihosting                     0x00000000   Number         0  useno.o ABSOLUTE
    __use_no_semihosting_swi                 0x00000000   Number         0  useno.o ABSOLUTE
    __use_no_signal_handling                 0x00000000   Number         0  useno.o ABSOLUTE
    _printf_a                                0x00000000   Number         0  stubs.o ABSOLUTE
    _printf_c                                0x00000000   Number         0  stubs.o ABSOLUTE
    _printf_charcount                        0x00000000   Number         0  stubs.o ABSOLUTE
    _printf_d                                0x00000000   Number         0  stubs.o ABSOLUTE
    _printf_e                                0x00000000   Number         0  stubs.o ABSOLUTE
    _printf_f                                0x00000000   Number         0  stubs.o ABSOLUTE
    _printf_flags                            0x00000000   Number         0  stubs.o ABSOLUTE
    _printf_fp_dec                           0x00000000   Number         0  stubs.o ABSOLUTE
    _printf_fp_hex                           0x00000000   Number         0  stubs.o ABSOLUTE
    _printf_g                                0x00000000   Number         0  stubs.o ABSOLUTE
    _printf_i                                0x00000000   Number         0  stubs.o ABSOLUTE
    _printf_int_dec                          0x00000000   Number         0  stubs.o ABSOLUTE
    _printf_l                                0x00000000   Number         0  stubs.o ABSOLUTE
    _printf_lc                               0x00000000   Number         0  stubs.o ABSOLUTE
    _printf_ll                               0x00000000   Number         0  stubs.o ABSOLUTE
    _printf_lld                              0x00000000   Number         0  stubs.o ABSOLUTE
    _printf_lli                              0x00000000   Number         0  stubs.o ABSOLUTE
    _printf_llo                              0x00000000   Number         0  stubs.o ABSOLUTE
    _printf_llu                              0x00000000   Number         0  stubs.o ABSOLUTE
    _printf_llx                              0x00000000   Number         0  stubs.o ABSOLUTE
    _printf_longlong_dec                     0x00000000   Number         0  stubs.o ABSOLUTE
    _printf_longlong_hex                     0x00000000   Number         0  stubs.o ABSOLUTE
    _printf_longlong_oct                     0x00000000   Number         0  stubs.o ABSOLUTE
    _printf_ls                               0x00000000   Number         0  stubs.o ABSOLUTE
    _printf_mbtowc                           0x00000000   Number         0  stubs.o ABSOLUTE
    _printf_n                                0x00000000   Number         0  stubs.o ABSOLUTE
    _printf_o                                0x00000000   Number         0  stubs.o ABSOLUTE
    _printf_p                                0x00000000   Number         0  stubs.o ABSOLUTE
    _printf_percent                          0x00000000   Number         0  stubs.o ABSOLUTE
    _printf_pre_padding                      0x00000000   Number         0  stubs.o ABSOLUTE
    _printf_return_value                     0x00000000   Number         0  stubs.o ABSOLUTE
    _printf_s                                0x00000000   Number         0  stubs.o ABSOLUTE
    _printf_sizespec                         0x00000000   Number         0  stubs.o ABSOLUTE
    _printf_str                              0x00000000   Number         0  stubs.o ABSOLUTE
    _printf_truncate_signed                  0x00000000   Number         0  stubs.o ABSOLUTE
    _printf_truncate_unsigned                0x00000000   Number         0  stubs.o ABSOLUTE
    _printf_u                                0x00000000   Number         0  stubs.o ABSOLUTE
    _printf_wc                               0x00000000   Number         0  stubs.o ABSOLUTE
    _printf_wctomb                           0x00000000   Number         0  stubs.o ABSOLUTE
    _printf_widthprec                        0x00000000   Number         0  stubs.o ABSOLUTE
    _printf_x                                0x00000000   Number         0  stubs.o ABSOLUTE
    __decompress                              - Undefined Weak Reference
    _clock_init                               - Undefined Weak Reference
    __Vectors_Size                           0x00000184   Number         0  startup_stm32f2xx.o ABSOLUTE
    __Vectors                                0x08000000   Data           4  startup_stm32f2xx.o(RESET)
    __Vectors_End                            0x08000184   Data           0  startup_stm32f2xx.o(RESET)
    __main                                   0x08000185   Thumb Code     0  entry.o(.ARM.Collect$$$$00000000)
    _main_stk                                0x08000185   Thumb Code     0  entry2.o(.ARM.Collect$$$$00000001)
    _main_scatterload                        0x08000189   Thumb Code     0  entry5.o(.ARM.Collect$$$$00000004)
    __main_after_scatterload                 0x0800018d   Thumb Code     0  entry5.o(.ARM.Collect$$$$00000004)
    _main_clock                              0x0800018d   Thumb Code     0  entry7b.o(.ARM.Collect$$$$00000008)
    _main_init                               0x0800018d   Thumb Code     0  entry8.o(.ARM.Collect$$$$00000009)
    Delay                                    0x08000199   Thumb Code    12  main.o(.text)
    ADC1_CH3_DMA_Config                      0x080001a5   Thumb Code   218  main.o(.text)
    GPIO_Configuration                       0x0800027f   Thumb Code    60  main.o(.text)
    main                                     0x080002bb   Thumb Code   156  main.o(.text)
    NMI_Handler                              0x080003c5   Thumb Code     2  stm32f2xx_it.o(.text)
    HardFault_Handler                        0x080003c7   Thumb Code     4  stm32f2xx_it.o(.text)
    MemManage_Handler                        0x080003cb   Thumb Code     4  stm32f2xx_it.o(.text)
    BusFault_Handler                         0x080003cf   Thumb Code     4  stm32f2xx_it.o(.text)
    UsageFault_Handler                       0x080003d3   Thumb Code     4  stm32f2xx_it.o(.text)
    SVC_Handler                              0x080003d7   Thumb Code     2  stm32f2xx_it.o(.text)
    DebugMon_Handler                         0x080003d9   Thumb Code     2  stm32f2xx_it.o(.text)
    PendSV_Handler                           0x080003db   Thumb Code     2  stm32f2xx_it.o(.text)
    SysTick_Handler                          0x080003dd   Thumb Code     2  stm32f2xx_it.o(.text)
    USART1_IRQHandler                        0x080003df   Thumb Code    82  stm32f2xx_it.o(.text)
    USART_Configuration                      0x08000475   Thumb Code   178  usart.o(.text)
    USART_NVIC_Config                        0x08000527   Thumb Code    32  usart.o(.text)
    _sys_exit                                0x08000547   Thumb Code     6  usart.o(.text)
    fputc                                    0x0800054d   Thumb Code    32  usart.o(.text)
    Reset_Handler                            0x08000575   Thumb Code     8  startup_stm32f2xx.o(.text)
    ADC_IRQHandler                           0x0800058f   Thumb Code     0  startup_stm32f2xx.o(.text)
    CAN1_RX0_IRQHandler                      0x0800058f   Thumb Code     0  startup_stm32f2xx.o(.text)
    CAN1_RX1_IRQHandler                      0x0800058f   Thumb Code     0  startup_stm32f2xx.o(.text)
    CAN1_SCE_IRQHandler                      0x0800058f   Thumb Code     0  startup_stm32f2xx.o(.text)
    CAN1_TX_IRQHandler                       0x0800058f   Thumb Code     0  startup_stm32f2xx.o(.text)
    CAN2_RX0_IRQHandler                      0x0800058f   Thumb Code     0  startup_stm32f2xx.o(.text)
    CAN2_RX1_IRQHandler                      0x0800058f   Thumb Code     0  startup_stm32f2xx.o(.text)
    CAN2_SCE_IRQHandler                      0x0800058f   Thumb Code     0  startup_stm32f2xx.o(.text)
    CAN2_TX_IRQHandler                       0x0800058f   Thumb Code     0  startup_stm32f2xx.o(.text)
    CRYP_IRQHandler                          0x0800058f   Thumb Code     0  startup_stm32f2xx.o(.text)
    DCMI_IRQHandler                          0x0800058f   Thumb Code     0  startup_stm32f2xx.o(.text)
    DMA1_Stream0_IRQHandler                  0x0800058f   Thumb Code     0  startup_stm32f2xx.o(.text)
    DMA1_Stream1_IRQHandler                  0x0800058f   Thumb Code     0  startup_stm32f2xx.o(.text)
    DMA1_Stream2_IRQHandler                  0x0800058f   Thumb Code     0  startup_stm32f2xx.o(.text)
    DMA1_Stream3_IRQHandler                  0x0800058f   Thumb Code     0  startup_stm32f2xx.o(.text)
    DMA1_Stream4_IRQHandler                  0x0800058f   Thumb Code     0  startup_stm32f2xx.o(.text)
    DMA1_Stream5_IRQHandler                  0x0800058f   Thumb Code     0  startup_stm32f2xx.o(.text)
    DMA1_Stream6_IRQHandler                  0x0800058f   Thumb Code     0  startup_stm32f2xx.o(.text)
    DMA1_Stream7_IRQHandler                  0x0800058f   Thumb Code     0  startup_stm32f2xx.o(.text)
    DMA2_Stream0_IRQHandler                  0x0800058f   Thumb Code     0  startup_stm32f2xx.o(.text)
    DMA2_Stream1_IRQHandler                  0x0800058f   Thumb Code     0  startup_stm32f2xx.o(.text)
    DMA2_Stream2_IRQHandler                  0x0800058f   Thumb Code     0  startup_stm32f2xx.o(.text)
    DMA2_Stream3_IRQHandler                  0x0800058f   Thumb Code     0  startup_stm32f2xx.o(.text)
    DMA2_Stream4_IRQHandler                  0x0800058f   Thumb Code     0  startup_stm32f2xx.o(.text)
    DMA2_Stream5_IRQHandler                  0x0800058f   Thumb Code     0  startup_stm32f2xx.o(.text)
    DMA2_Stream6_IRQHandler                  0x0800058f   Thumb Code     0  startup_stm32f2xx.o(.text)
    DMA2_Stream7_IRQHandler                  0x0800058f   Thumb Code     0  startup_stm32f2xx.o(.text)
    ETH_IRQHandler                           0x0800058f   Thumb Code     0  startup_stm32f2xx.o(.text)
    ETH_WKUP_IRQHandler                      0x0800058f   Thumb Code     0  startup_stm32f2xx.o(.text)
    EXTI0_IRQHandler                         0x0800058f   Thumb Code     0  startup_stm32f2xx.o(.text)
    EXTI15_10_IRQHandler                     0x0800058f   Thumb Code     0  startup_stm32f2xx.o(.text)
    EXTI1_IRQHandler                         0x0800058f   Thumb Code     0  startup_stm32f2xx.o(.text)
    EXTI2_IRQHandler                         0x0800058f   Thumb Code     0  startup_stm32f2xx.o(.text)
    EXTI3_IRQHandler                         0x0800058f   Thumb Code     0  startup_stm32f2xx.o(.text)
    EXTI4_IRQHandler                         0x0800058f   Thumb Code     0  startup_stm32f2xx.o(.text)
    EXTI9_5_IRQHandler                       0x0800058f   Thumb Code     0  startup_stm32f2xx.o(.text)
    FLASH_IRQHandler                         0x0800058f   Thumb Code     0  startup_stm32f2xx.o(.text)
    FSMC_IRQHandler                          0x0800058f   Thumb Code     0  startup_stm32f2xx.o(.text)
    HASH_RNG_IRQHandler                      0x0800058f   Thumb Code     0  startup_stm32f2xx.o(.text)
    I2C1_ER_IRQHandler                       0x0800058f   Thumb Code     0  startup_stm32f2xx.o(.text)
    I2C1_EV_IRQHandler                       0x0800058f   Thumb Code     0  startup_stm32f2xx.o(.text)
    I2C2_ER_IRQHandler                       0x0800058f   Thumb Code     0  startup_stm32f2xx.o(.text)
    I2C2_EV_IRQHandler                       0x0800058f   Thumb Code     0  startup_stm32f2xx.o(.text)
    I2C3_ER_IRQHandler                       0x0800058f   Thumb Code     0  startup_stm32f2xx.o(.text)
    I2C3_EV_IRQHandler                       0x0800058f   Thumb Code     0  startup_stm32f2xx.o(.text)
    OTG_FS_IRQHandler                        0x0800058f   Thumb Code     0  startup_stm32f2xx.o(.text)
    OTG_FS_WKUP_IRQHandler                   0x0800058f   Thumb Code     0  startup_stm32f2xx.o(.text)
    OTG_HS_EP1_IN_IRQHandler                 0x0800058f   Thumb Code     0  startup_stm32f2xx.o(.text)
    OTG_HS_EP1_OUT_IRQHandler                0x0800058f   Thumb Code     0  startup_stm32f2xx.o(.text)
    OTG_HS_IRQHandler                        0x0800058f   Thumb Code     0  startup_stm32f2xx.o(.text)
    OTG_HS_WKUP_IRQHandler                   0x0800058f   Thumb Code     0  startup_stm32f2xx.o(.text)
    PVD_IRQHandler                           0x0800058f   Thumb Code     0  startup_stm32f2xx.o(.text)
    RCC_IRQHandler                           0x0800058f   Thumb Code     0  startup_stm32f2xx.o(.text)
    RTC_Alarm_IRQHandler                     0x0800058f   Thumb Code     0  startup_stm32f2xx.o(.text)
    RTC_WKUP_IRQHandler                      0x0800058f   Thumb Code     0  startup_stm32f2xx.o(.text)
    SDIO_IRQHandler                          0x0800058f   Thumb Code     0  startup_stm32f2xx.o(.text)
    SPI1_IRQHandler                          0x0800058f   Thumb Code     0  startup_stm32f2xx.o(.text)
    SPI2_IRQHandler                          0x0800058f   Thumb Code     0  startup_stm32f2xx.o(.text)
    SPI3_IRQHandler                          0x0800058f   Thumb Code     0  startup_stm32f2xx.o(.text)
    TAMP_STAMP_IRQHandler                    0x0800058f   Thumb Code     0  startup_stm32f2xx.o(.text)
    TIM1_BRK_TIM9_IRQHandler                 0x0800058f   Thumb Code     0  startup_stm32f2xx.o(.text)
    TIM1_CC_IRQHandler                       0x0800058f   Thumb Code     0  startup_stm32f2xx.o(.text)
    TIM1_TRG_COM_TIM11_IRQHandler            0x0800058f   Thumb Code     0  startup_stm32f2xx.o(.text)
    TIM1_UP_TIM10_IRQHandler                 0x0800058f   Thumb Code     0  startup_stm32f2xx.o(.text)
    TIM2_IRQHandler                          0x0800058f   Thumb Code     0  startup_stm32f2xx.o(.text)
    TIM3_IRQHandler                          0x0800058f   Thumb Code     0  startup_stm32f2xx.o(.text)
    TIM4_IRQHandler                          0x0800058f   Thumb Code     0  startup_stm32f2xx.o(.text)
    TIM5_IRQHandler                          0x0800058f   Thumb Code     0  startup_stm32f2xx.o(.text)
    TIM6_DAC_IRQHandler                      0x0800058f   Thumb Code     0  startup_stm32f2xx.o(.text)
    TIM7_IRQHandler                          0x0800058f   Thumb Code     0  startup_stm32f2xx.o(.text)
    TIM8_BRK_TIM12_IRQHandler                0x0800058f   Thumb Code     0  startup_stm32f2xx.o(.text)
    TIM8_CC_IRQHandler                       0x0800058f   Thumb Code     0  startup_stm32f2xx.o(.text)
    TIM8_TRG_COM_TIM14_IRQHandler            0x0800058f   Thumb Code     0  startup_stm32f2xx.o(.text)
    TIM8_UP_TIM13_IRQHandler                 0x0800058f   Thumb Code     0  startup_stm32f2xx.o(.text)
    UART4_IRQHandler                         0x0800058f   Thumb Code     0  startup_stm32f2xx.o(.text)
    UART5_IRQHandler                         0x0800058f   Thumb Code     0  startup_stm32f2xx.o(.text)
    USART2_IRQHandler                        0x0800058f   Thumb Code     0  startup_stm32f2xx.o(.text)
    USART3_IRQHandler                        0x0800058f   Thumb Code     0  startup_stm32f2xx.o(.text)
    USART6_IRQHandler                        0x0800058f   Thumb Code     0  startup_stm32f2xx.o(.text)
    WWDG_IRQHandler                          0x0800058f   Thumb Code     0  startup_stm32f2xx.o(.text)
    GPIO_DeInit                              0x08000599   Thumb Code   220  stm32f2xx_gpio.o(.text)
    GPIO_Init                                0x08000675   Thumb Code   144  stm32f2xx_gpio.o(.text)
    GPIO_StructInit                          0x08000705   Thumb Code    18  stm32f2xx_gpio.o(.text)
    GPIO_PinLockConfig                       0x08000717   Thumb Code    18  stm32f2xx_gpio.o(.text)
    GPIO_ReadInputDataBit                    0x08000729   Thumb Code    18  stm32f2xx_gpio.o(.text)
    GPIO_ReadInputData                       0x0800073b   Thumb Code     8  stm32f2xx_gpio.o(.text)
    GPIO_ReadOutputDataBit                   0x08000743   Thumb Code    18  stm32f2xx_gpio.o(.text)
    GPIO_ReadOutputData                      0x08000755   Thumb Code     8  stm32f2xx_gpio.o(.text)
    GPIO_SetBits                             0x0800075d   Thumb Code     4  stm32f2xx_gpio.o(.text)
    GPIO_ResetBits                           0x08000761   Thumb Code     4  stm32f2xx_gpio.o(.text)
    GPIO_WriteBit                            0x08000765   Thumb Code    10  stm32f2xx_gpio.o(.text)
    GPIO_Write                               0x0800076f   Thumb Code     4  stm32f2xx_gpio.o(.text)
    GPIO_ToggleBits                          0x08000773   Thumb Code     8  stm32f2xx_gpio.o(.text)
    GPIO_PinAFConfig                         0x0800077b   Thumb Code    70  stm32f2xx_gpio.o(.text)
    RCC_DeInit                               0x080007e5   Thumb Code    60  stm32f2xx_rcc.o(.text)
    RCC_HSEConfig                            0x08000821   Thumb Code    14  stm32f2xx_rcc.o(.text)
    RCC_GetFlagStatus                        0x0800082f   Thumb Code    60  stm32f2xx_rcc.o(.text)
    RCC_WaitForHSEStartUp                    0x0800086b   Thumb Code    48  stm32f2xx_rcc.o(.text)
    RCC_AdjustHSICalibrationValue            0x0800089b   Thumb Code    20  stm32f2xx_rcc.o(.text)
    RCC_HSICmd                               0x080008af   Thumb Code     6  stm32f2xx_rcc.o(.text)
    RCC_LSEConfig                            0x080008b5   Thumb Code    46  stm32f2xx_rcc.o(.text)
    RCC_LSICmd                               0x080008e3   Thumb Code     6  stm32f2xx_rcc.o(.text)
    RCC_PLLConfig                            0x080008e9   Thumb Code    32  stm32f2xx_rcc.o(.text)
    RCC_PLLCmd                               0x08000909   Thumb Code     6  stm32f2xx_rcc.o(.text)
    RCC_PLLI2SConfig                         0x0800090f   Thumb Code    14  stm32f2xx_rcc.o(.text)
    RCC_PLLI2SCmd                            0x0800091d   Thumb Code     6  stm32f2xx_rcc.o(.text)
    RCC_ClockSecuritySystemCmd               0x08000923   Thumb Code     6  stm32f2xx_rcc.o(.text)
    RCC_MCO1Config                           0x08000929   Thumb Code    28  stm32f2xx_rcc.o(.text)
    RCC_MCO2Config                           0x08000945   Thumb Code    28  stm32f2xx_rcc.o(.text)
    RCC_SYSCLKConfig                         0x08000961   Thumb Code    20  stm32f2xx_rcc.o(.text)
    RCC_GetSYSCLKSource                      0x08000975   Thumb Code    12  stm32f2xx_rcc.o(.text)
    RCC_HCLKConfig                           0x08000981   Thumb Code    20  stm32f2xx_rcc.o(.text)
    RCC_PCLK1Config                          0x08000995   Thumb Code    20  stm32f2xx_rcc.o(.text)
    RCC_PCLK2Config                          0x080009a9   Thumb Code    22  stm32f2xx_rcc.o(.text)
    RCC_GetClocksFreq                        0x080009bf   Thumb Code   222  stm32f2xx_rcc.o(.text)
    RCC_RTCCLKConfig                         0x08000a9d   Thumb Code    54  stm32f2xx_rcc.o(.text)
    RCC_RTCCLKCmd                            0x08000ad3   Thumb Code     8  stm32f2xx_rcc.o(.text)
    RCC_BackupResetCmd                       0x08000adb   Thumb Code     8  stm32f2xx_rcc.o(.text)
    RCC_I2SCLKConfig                         0x08000ae3   Thumb Code     6  stm32f2xx_rcc.o(.text)
    RCC_AHB1PeriphClockCmd                   0x08000ae9   Thumb Code    34  stm32f2xx_rcc.o(.text)
    RCC_AHB2PeriphClockCmd                   0x08000b0b   Thumb Code    34  stm32f2xx_rcc.o(.text)
    RCC_AHB3PeriphClockCmd                   0x08000b2d   Thumb Code    34  stm32f2xx_rcc.o(.text)
    RCC_APB1PeriphClockCmd                   0x08000b4f   Thumb Code    34  stm32f2xx_rcc.o(.text)
    RCC_APB2PeriphClockCmd                   0x08000b71   Thumb Code    34  stm32f2xx_rcc.o(.text)
    RCC_AHB1PeriphResetCmd                   0x08000b93   Thumb Code    34  stm32f2xx_rcc.o(.text)
    RCC_AHB2PeriphResetCmd                   0x08000bb5   Thumb Code    72  stm32f2xx_rcc.o(.text)
    RCC_AHB3PeriphResetCmd                   0x08000bfd   Thumb Code    34  stm32f2xx_rcc.o(.text)
    RCC_APB1PeriphResetCmd                   0x08000c1f   Thumb Code    34  stm32f2xx_rcc.o(.text)
    RCC_APB2PeriphResetCmd                   0x08000c41   Thumb Code    34  stm32f2xx_rcc.o(.text)
    RCC_AHB1PeriphClockLPModeCmd             0x08000c63   Thumb Code    34  stm32f2xx_rcc.o(.text)
    RCC_AHB2PeriphClockLPModeCmd             0x08000c85   Thumb Code    34  stm32f2xx_rcc.o(.text)
    RCC_AHB3PeriphClockLPModeCmd             0x08000ca7   Thumb Code    34  stm32f2xx_rcc.o(.text)
    RCC_APB1PeriphClockLPModeCmd             0x08000cc9   Thumb Code    34  stm32f2xx_rcc.o(.text)
    RCC_APB2PeriphClockLPModeCmd             0x08000ceb   Thumb Code    34  stm32f2xx_rcc.o(.text)
    RCC_ITConfig                             0x08000d0d   Thumb Code    38  stm32f2xx_rcc.o(.text)
    RCC_ClearFlag                            0x08000d33   Thumb Code    18  stm32f2xx_rcc.o(.text)
    RCC_GetITStatus                          0x08000d45   Thumb Code    22  stm32f2xx_rcc.o(.text)
    RCC_ClearITPendingBit                    0x08000d5b   Thumb Code     8  stm32f2xx_rcc.o(.text)
    USART_DeInit                             0x08000d69   Thumb Code   156  stm32f2xx_usart.o(.text)
    USART_Init                               0x08000e05   Thumb Code   204  stm32f2xx_usart.o(.text)
    USART_StructInit                         0x08000ed1   Thumb Code    24  stm32f2xx_usart.o(.text)
    USART_ClockInit                          0x08000ee9   Thumb Code    32  stm32f2xx_usart.o(.text)
    USART_ClockStructInit                    0x08000f09   Thumb Code    12  stm32f2xx_usart.o(.text)
    USART_Cmd                                0x08000f15   Thumb Code    24  stm32f2xx_usart.o(.text)
    USART_SetPrescaler                       0x08000f2d   Thumb Code    16  stm32f2xx_usart.o(.text)
    USART_OverSampling8Cmd                   0x08000f3d   Thumb Code    22  stm32f2xx_usart.o(.text)
    USART_OneBitMethodCmd                    0x08000f53   Thumb Code    24  stm32f2xx_usart.o(.text)
    USART_SendData                           0x08000f6b   Thumb Code     8  stm32f2xx_usart.o(.text)
    USART_ReceiveData                        0x08000f73   Thumb Code    10  stm32f2xx_usart.o(.text)
    USART_SetAddress                         0x08000f7d   Thumb Code    18  stm32f2xx_usart.o(.text)
    USART_ReceiverWakeUpCmd                  0x08000f8f   Thumb Code    24  stm32f2xx_usart.o(.text)
    USART_WakeUpConfig                       0x08000fa7   Thumb Code    18  stm32f2xx_usart.o(.text)
    USART_LINBreakDetectLengthConfig         0x08000fb9   Thumb Code    18  stm32f2xx_usart.o(.text)
    USART_LINCmd                             0x08000fcb   Thumb Code    24  stm32f2xx_usart.o(.text)
    USART_SendBreak                          0x08000fe3   Thumb Code    10  stm32f2xx_usart.o(.text)
    USART_HalfDuplexCmd                      0x08000fed   Thumb Code    24  stm32f2xx_usart.o(.text)
    USART_SetGuardTime                       0x08001005   Thumb Code    16  stm32f2xx_usart.o(.text)
    USART_SmartCardCmd                       0x08001015   Thumb Code    24  stm32f2xx_usart.o(.text)
    USART_SmartCardNACKCmd                   0x0800102d   Thumb Code    24  stm32f2xx_usart.o(.text)
    USART_IrDAConfig                         0x08001045   Thumb Code    18  stm32f2xx_usart.o(.text)
    USART_IrDACmd                            0x08001057   Thumb Code    24  stm32f2xx_usart.o(.text)
    USART_DMACmd                             0x0800106f   Thumb Code    24  stm32f2xx_usart.o(.text)
    USART_ITConfig                           0x08001087   Thumb Code    74  stm32f2xx_usart.o(.text)
    USART_GetFlagStatus                      0x080010d1   Thumb Code    26  stm32f2xx_usart.o(.text)
    USART_ClearFlag                          0x080010eb   Thumb Code    18  stm32f2xx_usart.o(.text)
    USART_GetITStatus                        0x080010fd   Thumb Code   108  stm32f2xx_usart.o(.text)
    USART_ClearITPendingBit                  0x08001169   Thumb Code    30  stm32f2xx_usart.o(.text)
    ADC_DeInit                               0x08001189   Thumb Code    22  stm32f2xx_adc.o(.text)
    ADC_Init                                 0x0800119f   Thumb Code    74  stm32f2xx_adc.o(.text)
    ADC_StructInit                           0x080011e9   Thumb Code    20  stm32f2xx_adc.o(.text)
    ADC_CommonInit                           0x080011fd   Thumb Code    44  stm32f2xx_adc.o(.text)
    ADC_CommonStructInit                     0x08001229   Thumb Code    12  stm32f2xx_adc.o(.text)
    ADC_Cmd                                  0x08001235   Thumb Code    22  stm32f2xx_adc.o(.text)
    ADC_AnalogWatchdogCmd                    0x0800124b   Thumb Code    16  stm32f2xx_adc.o(.text)
    ADC_AnalogWatchdogThresholdsConfig       0x0800125b   Thumb Code     6  stm32f2xx_adc.o(.text)
    ADC_AnalogWatchdogSingleChannelConfig    0x08001261   Thumb Code    16  stm32f2xx_adc.o(.text)
    ADC_TempSensorVrefintCmd                 0x08001271   Thumb Code    34  stm32f2xx_adc.o(.text)
    ADC_VBATCmd                              0x08001293   Thumb Code    34  stm32f2xx_adc.o(.text)
    ADC_RegularChannelConfig                 0x080012b5   Thumb Code   184  stm32f2xx_adc.o(.text)
    ADC_SoftwareStartConv                    0x0800136d   Thumb Code    10  stm32f2xx_adc.o(.text)
    ADC_GetSoftwareStartConvStatus           0x08001377   Thumb Code    20  stm32f2xx_adc.o(.text)
    ADC_EOCOnEachRegularChannelCmd           0x0800138b   Thumb Code    22  stm32f2xx_adc.o(.text)
    ADC_ContinuousModeCmd                    0x080013a1   Thumb Code    22  stm32f2xx_adc.o(.text)
    ADC_DiscModeChannelCountConfig           0x080013b7   Thumb Code    24  stm32f2xx_adc.o(.text)
    ADC_DiscModeCmd                          0x080013cf   Thumb Code    22  stm32f2xx_adc.o(.text)
    ADC_GetConversionValue                   0x080013e5   Thumb Code     8  stm32f2xx_adc.o(.text)
    ADC_GetMultiModeConversionValue          0x080013ed   Thumb Code     6  stm32f2xx_adc.o(.text)
    ADC_DMACmd                               0x080013f3   Thumb Code    22  stm32f2xx_adc.o(.text)
    ADC_DMARequestAfterLastTransferCmd       0x08001409   Thumb Code    22  stm32f2xx_adc.o(.text)
    ADC_MultiModeDMARequestAfterLastTransferCmd 0x0800141f   Thumb Code    34  stm32f2xx_adc.o(.text)
    ADC_InjectedChannelConfig                0x08001441   Thumb Code   130  stm32f2xx_adc.o(.text)
    ADC_InjectedSequencerLengthConfig        0x080014c3   Thumb Code    24  stm32f2xx_adc.o(.text)
    ADC_SetInjectedOffset                    0x080014db   Thumb Code    12  stm32f2xx_adc.o(.text)
    ADC_ExternalTrigInjectedConvConfig       0x080014e7   Thumb Code    16  stm32f2xx_adc.o(.text)
    ADC_ExternalTrigInjectedConvEdgeConfig   0x080014f7   Thumb Code    16  stm32f2xx_adc.o(.text)
    ADC_SoftwareStartInjectedConv            0x08001507   Thumb Code    10  stm32f2xx_adc.o(.text)
    ADC_GetSoftwareStartInjectedConvCmdStatus 0x08001511   Thumb Code    20  stm32f2xx_adc.o(.text)
    ADC_AutoInjectedConvCmd                  0x08001525   Thumb Code    22  stm32f2xx_adc.o(.text)
    ADC_InjectedDiscModeCmd                  0x0800153b   Thumb Code    22  stm32f2xx_adc.o(.text)
    ADC_GetInjectedConversionValue           0x08001551   Thumb Code    18  stm32f2xx_adc.o(.text)
    ADC_ITConfig                             0x08001563   Thumb Code    32  stm32f2xx_adc.o(.text)
    ADC_GetFlagStatus                        0x08001583   Thumb Code    46  stm32f2xx_adc.o(.text)
    ADC_ClearFlag                            0x080015b1   Thumb Code     6  stm32f2xx_adc.o(.text)
    ADC_GetITStatus                          0x080015b7   Thumb Code    38  stm32f2xx_adc.o(.text)
    ADC_ClearITPendingBit                    0x080015dd   Thumb Code    10  stm32f2xx_adc.o(.text)
    DMA_DeInit                               0x080015e9   Thumb Code   324  stm32f2xx_dma.o(.text)
    DMA_Init                                 0x0800172d   Thumb Code    82  stm32f2xx_dma.o(.text)
    DMA_StructInit                           0x0800177f   Thumb Code    34  stm32f2xx_dma.o(.text)
    DMA_Cmd                                  0x080017a1   Thumb Code    22  stm32f2xx_dma.o(.text)
    DMA_PeriphIncOffsetSizeConfig            0x080017b7   Thumb Code    22  stm32f2xx_dma.o(.text)
    DMA_FlowControllerConfig                 0x080017cd   Thumb Code    22  stm32f2xx_dma.o(.text)
    DMA_SetCurrDataCounter                   0x080017e3   Thumb Code     4  stm32f2xx_dma.o(.text)
    DMA_GetCurrDataCounter                   0x080017e7   Thumb Code     8  stm32f2xx_dma.o(.text)
    DMA_DoubleBufferModeConfig               0x080017ef   Thumb Code    24  stm32f2xx_dma.o(.text)
    DMA_DoubleBufferModeCmd                  0x08001807   Thumb Code    22  stm32f2xx_dma.o(.text)
    DMA_MemoryTargetConfig                   0x0800181d   Thumb Code    10  stm32f2xx_dma.o(.text)
    DMA_GetCurrentMemoryTarget               0x08001827   Thumb Code    20  stm32f2xx_dma.o(.text)
    DMA_GetCmdStatus                         0x0800183b   Thumb Code    20  stm32f2xx_dma.o(.text)
    DMA_GetFIFOStatus                        0x0800184f   Thumb Code    12  stm32f2xx_dma.o(.text)
    DMA_GetFlagStatus                        0x0800185b   Thumb Code    54  stm32f2xx_dma.o(.text)
    DMA_ClearFlag                            0x08001891   Thumb Code    40  stm32f2xx_dma.o(.text)
    DMA_ITConfig                             0x080018b9   Thumb Code    58  stm32f2xx_dma.o(.text)
    DMA_GetITStatus                          0x080018f3   Thumb Code    82  stm32f2xx_dma.o(.text)
    DMA_ClearITPendingBit                    0x08001945   Thumb Code    40  stm32f2xx_dma.o(.text)
    NVIC_PriorityGroupConfig                 0x0800198d   Thumb Code    10  misc.o(.text)
    NVIC_Init                                0x08001997   Thumb Code   108  misc.o(.text)
    NVIC_SetVectorTable                      0x08001a03   Thumb Code    14  misc.o(.text)
    NVIC_SystemLPConfig                      0x08001a11   Thumb Code    34  misc.o(.text)
    SysTick_CLKSourceConfig                  0x08001a33   Thumb Code    40  misc.o(.text)
    SystemInit                               0x08001b1b   Thumb Code    74  system_stm32f2xx.o(.text)
    SystemCoreClockUpdate                    0x08001b65   Thumb Code   174  system_stm32f2xx.o(.text)
    __aeabi_fdiv                             0x08001c3d   Thumb Code   128  fdiv.o(.text)
    __aeabi_dmul                             0x08001cbd   Thumb Code   224  dmul.o(.text)
    __aeabi_ddiv                             0x08001d9d   Thumb Code   222  ddiv.o(.text)
    __aeabi_ui2f                             0x08001e7b   Thumb Code    10  ffltui.o(.text)
    __aeabi_f2d                              0x08001e85   Thumb Code    44  f2d.o(.text)
    __aeabi_d2f                              0x08001eb1   Thumb Code    56  d2f.o(.text)
    __aeabi_uidiv                            0x08001ee9   Thumb Code     0  uidiv.o(.text)
    __aeabi_uidivmod                         0x08001ee9   Thumb Code    44  uidiv.o(.text)
    __aeabi_uldivmod                         0x08001f15   Thumb Code    98  uldiv.o(.text)
    __I$use$fp                               0x08001f77   Thumb Code     0  iusefp.o(.text)
    _float_round                             0x08001f77   Thumb Code    18  fepilogue.o(.text)
    _float_epilogue                          0x08001f89   Thumb Code    90  fepilogue.o(.text)
    _double_round                            0x08001fe3   Thumb Code    26  depilogue.o(.text)
    _double_epilogue                         0x08001ffd   Thumb Code   164  depilogue.o(.text)
    __aeabi_dadd                             0x080020a1   Thumb Code   320  dadd.o(.text)
    __aeabi_dsub                             0x080021e1   Thumb Code     6  dadd.o(.text)
    __aeabi_drsub                            0x080021e7   Thumb Code     6  dadd.o(.text)
    __aeabi_d2ulz                            0x080021ed   Thumb Code    48  dfixul.o(.text)
    __aeabi_cdrcmple                         0x0800221d   Thumb Code    38  cdrcmple.o(.text)
    __scatterload                            0x08002245   Thumb Code    28  init.o(.text)
    __scatterload_rt2                        0x08002245   Thumb Code     0  init.o(.text)
    __aeabi_llsl                             0x08002269   Thumb Code    30  llshl.o(.text)
    _ll_shift_l                              0x08002269   Thumb Code     0  llshl.o(.text)
    __aeabi_llsr                             0x08002287   Thumb Code    32  llushr.o(.text)
    _ll_ushift_r                             0x08002287   Thumb Code     0  llushr.o(.text)
    __aeabi_lasr                             0x080022a7   Thumb Code    36  llsshr.o(.text)
    _ll_sshift_r                             0x080022a7   Thumb Code     0  llsshr.o(.text)
    __0printf                                0x080022cd   Thumb Code    22  printfa.o(i.__0printf)
    __1printf                                0x080022cd   Thumb Code     0  printfa.o(i.__0printf)
    __2printf                                0x080022cd   Thumb Code     0  printfa.o(i.__0printf)
    __c89printf                              0x080022cd   Thumb Code     0  printfa.o(i.__0printf)
    printf                                   0x080022cd   Thumb Code     0  printfa.o(i.__0printf)
    __scatterload_copy                       0x080022ed   Thumb Code    14  handlers.o(i.__scatterload_copy)
    __scatterload_null                       0x080022fb   Thumb Code     2  handlers.o(i.__scatterload_null)
    __scatterload_zeroinit                   0x080022fd   Thumb Code    14  handlers.o(i.__scatterload_zeroinit)
    Region$$Table$$Base                      0x08002c08   Number         0  anon$$obj.o(Region$$Table)
    Region$$Table$$Limit                     0x08002c28   Number         0  anon$$obj.o(Region$$Table)
    AD_value                                 0x20000000   Data           4  main.o(.data)
    ADC_ConvertedValue                       0x20000004   Data           2  main.o(.data)
    __stdout                                 0x20000008   Data           4  usart.o(.data)
    SystemCoreClock                          0x2000001c   Data           4  system_stm32f2xx.o(.data)
    AHBPrescTable                            0x20000020   Data          16  system_stm32f2xx.o(.data)
    __initial_sp                             0x20000430   Data           0  startup_stm32f2xx.o(STACK)



==============================================================================

Memory Map of the image

  Image Entry point : 0x08000185

  Load Region LR_IROM1 (Base: 0x08000000, Size: 0x00002c58, Max: 0x00100000, ABSOLUTE)

    Execution Region ER_IROM1 (Base: 0x08000000, Size: 0x00002c28, Max: 0x00100000, ABSOLUTE)

    Base Addr    Size         Type   Attr      Idx    E Section Name        Object

    0x08000000   0x00000184   Data   RO          299    RESET               startup_stm32f2xx.o
    0x08000184   0x00000000   Code   RO          419  * .ARM.Collect$$$$00000000  mc_w.l(entry.o)
    0x08000184   0x00000004   Code   RO          695    .ARM.Collect$$$$00000001  mc_w.l(entry2.o)
    0x08000188   0x00000004   Code   RO          698    .ARM.Collect$$$$00000004  mc_w.l(entry5.o)
    0x0800018c   0x00000000   Code   RO          700    .ARM.Collect$$$$00000008  mc_w.l(entry7b.o)
    0x0800018c   0x00000008   Code   RO          701    .ARM.Collect$$$$00000009  mc_w.l(entry8.o)
    0x08000194   0x00000004   Code   RO          696    .ARM.Collect$$$$00002712  mc_w.l(entry2.o)
    0x08000198   0x0000022c   Code   RO            1    .text               main.o
    0x080003c4   0x000000b0   Code   RO          121    .text               stm32f2xx_it.o
    0x08000474   0x00000100   Code   RO          231    .text               usart.o
    0x08000574   0x00000024   Code   RO          300    .text               startup_stm32f2xx.o
    0x08000598   0x0000024c   Code   RO          305    .text               stm32f2xx_gpio.o
    0x080007e4   0x00000584   Code   RO          317    .text               stm32f2xx_rcc.o
    0x08000d68   0x0000041e   Code   RO          331    .text               stm32f2xx_usart.o
    0x08001186   0x00000002   PAD
    0x08001188   0x0000045e   Code   RO          343    .text               stm32f2xx_adc.o
    0x080015e6   0x00000002   PAD
    0x080015e8   0x000003a4   Code   RO          355    .text               stm32f2xx_dma.o
    0x0800198c   0x000000e4   Code   RO          367    .text               misc.o
    0x08001a70   0x000001cc   Code   RO          401    .text               system_stm32f2xx.o
    0x08001c3c   0x00000080   Code   RO          683    .text               mf_w.l(fdiv.o)
    0x08001cbc   0x000000e0   Code   RO          685    .text               mf_w.l(dmul.o)
    0x08001d9c   0x000000de   Code   RO          687    .text               mf_w.l(ddiv.o)
    0x08001e7a   0x0000000a   Code   RO          689    .text               mf_w.l(ffltui.o)
    0x08001e84   0x0000002c   Code   RO          691    .text               mf_w.l(f2d.o)
    0x08001eb0   0x00000038   Code   RO          693    .text               mf_w.l(d2f.o)
    0x08001ee8   0x0000002c   Code   RO          702    .text               mc_w.l(uidiv.o)
    0x08001f14   0x00000062   Code   RO          704    .text               mc_w.l(uldiv.o)
    0x08001f76   0x00000000   Code   RO          706    .text               mc_w.l(iusefp.o)
    0x08001f76   0x0000006c   Code   RO          707    .text               mf_w.l(fepilogue.o)
    0x08001fe2   0x000000be   Code   RO          709    .text               mf_w.l(depilogue.o)
    0x080020a0   0x0000014c   Code   RO          711    .text               mf_w.l(dadd.o)
    0x080021ec   0x00000030   Code   RO          713    .text               mf_w.l(dfixul.o)
    0x0800221c   0x00000028   Code   RO          715    .text               mf_w.l(cdrcmple.o)
    0x08002244   0x00000024   Code   RO          717    .text               mc_w.l(init.o)
    0x08002268   0x0000001e   Code   RO          719    .text               mc_w.l(llshl.o)
    0x08002286   0x00000020   Code   RO          721    .text               mc_w.l(llushr.o)
    0x080022a6   0x00000024   Code   RO          723    .text               mc_w.l(llsshr.o)
    0x080022ca   0x00000002   PAD
    0x080022cc   0x00000020   Code   RO          655    i.__0printf         mc_w.l(printfa.o)
    0x080022ec   0x0000000e   Code   RO          727    i.__scatterload_copy  mc_w.l(handlers.o)
    0x080022fa   0x00000002   Code   RO          728    i.__scatterload_null  mc_w.l(handlers.o)
    0x080022fc   0x0000000e   Code   RO          729    i.__scatterload_zeroinit  mc_w.l(handlers.o)
    0x0800230a   0x00000002   PAD
    0x0800230c   0x00000158   Code   RO          662    i._fp_digits        mc_w.l(printfa.o)
    0x08002464   0x00000704   Code   RO          663    i._printf_core      mc_w.l(printfa.o)
    0x08002b68   0x00000026   Code   RO          664    i._printf_post_padding  mc_w.l(printfa.o)
    0x08002b8e   0x00000030   Code   RO          665    i._printf_pre_padding  mc_w.l(printfa.o)
    0x08002bbe   0x00000002   PAD
    0x08002bc0   0x00000045   Data   RO            2    .constdata          main.o
    0x08002c05   0x00000003   PAD
    0x08002c08   0x00000020   Data   RO          725    Region$$Table       anon$$obj.o


    Execution Region RW_IRAM1 (Base: 0x20000000, Size: 0x00000430, Max: 0x00020000, ABSOLUTE)

    Base Addr    Size         Type   Attr      Idx    E Section Name        Object

    0x20000000   0x00000006   Data   RW            3    .data               main.o
    0x20000006   0x00000002   PAD
    0x20000008   0x00000004   Data   RW          232    .data               usart.o
    0x2000000c   0x00000010   Data   RW          318    .data               stm32f2xx_rcc.o
    0x2000001c   0x00000014   Data   RW          402    .data               system_stm32f2xx.o
    0x20000030   0x00000400   Zero   RW          297    STACK               startup_stm32f2xx.o


==============================================================================

Image component sizes


      Code (inc. data)   RO Data    RW Data    ZI Data      Debug   Object Name

       556        110         69          6          0     242250   main.o
       228         22          0          0          0       1853   misc.o
        36          8        388          0       1024        904   startup_stm32f2xx.o
      1118         28          0          0          0      10490   stm32f2xx_adc.o
       932         32          0          0          0       6381   stm32f2xx_dma.o
       588         36          0          0          0       3993   stm32f2xx_gpio.o
       176         68          0          0          0     258328   stm32f2xx_it.o
      1412         48          0         16          0      10991   stm32f2xx_rcc.o
      1054         24          0          0          0       7764   stm32f2xx_usart.o
       460         42          0         20          0       1879   system_stm32f2xx.o
       256          8          0          4          0       2814   usart.o

    ----------------------------------------------------------------------
      6820        426        492         48       1024     547647   Object Totals
         0          0         32          0          0          0   (incl. Generated)
         4          0          3          2          0          0   (incl. Padding)

    ----------------------------------------------------------------------

      Code (inc. data)   RO Data    RW Data    ZI Data      Debug   Library Member Name

         0          0          0          0          0          0   entry.o
         8          4          0          0          0          0   entry2.o
         4          0          0          0          0          0   entry5.o
         0          0          0          0          0          0   entry7b.o
         8          4          0          0          0          0   entry8.o
        30          0          0          0          0          0   handlers.o
        36          8          0          0          0         68   init.o
         0          0          0          0          0          0   iusefp.o
        30          0          0          0          0         68   llshl.o
        36          0          0          0          0         68   llsshr.o
        32          0          0          0          0         68   llushr.o
      2258         88          0          0          0        444   printfa.o
        44          0          0          0          0         80   uidiv.o
        98          0          0          0          0         92   uldiv.o
        40          2          0          0          0         68   cdrcmple.o
        56          0          0          0          0         88   d2f.o
       332          0          0          0          0        148   dadd.o
       222          0          0          0          0        100   ddiv.o
       190          0          0          0          0        176   depilogue.o
        48          0          0          0          0         68   dfixul.o
       224          0          0          0          0         96   dmul.o
        44          0          0          0          0         68   f2d.o
       128          0          0          0          0         88   fdiv.o
       108          0          0          0          0        168   fepilogue.o
        10          0          0          0          0         68   ffltui.o

    ----------------------------------------------------------------------
      3992        106          0          0          0       2024   Library Totals
         6          0          0          0          0          0   (incl. Padding)

    ----------------------------------------------------------------------

      Code (inc. data)   RO Data    RW Data    ZI Data      Debug   Library Name

      2584        104          0          0          0        888   mc_w.l
      1402          2          0          0          0       1136   mf_w.l

    ----------------------------------------------------------------------
      3992        106          0          0          0       2024   Library Totals

    ----------------------------------------------------------------------

==============================================================================


      Code (inc. data)   RO Data    RW Data    ZI Data      Debug   

     10812        532        492         48       1024     547435   Grand Totals
     10812        532        492         48       1024     547435   ELF Image Totals
     10812        532        492         48          0          0   ROM Totals

==============================================================================

    Total RO  Size (Code + RO Data)                11304 (  11.04kB)
    Total RW  Size (RW Data + ZI Data)              1072 (   1.05kB)
    Total ROM Size (Code + RO Data + RW Data)      11352 (  11.09kB)

==============================================================================

