:020000040800F2
:100000003004002075050008C5030008C703000878
:10001000CB030008CF030008D30300080000000052
:10002000000000000000000000000000D7030008EE
:10003000D903000800000000DB030008DD0300080E
:100040008F0500088F0500088F0500088F05000840
:100050008F0500088F0500088F0500088F05000830
:100060008F0500088F0500088F0500088F05000820
:100070008F0500088F0500088F0500088F05000810
:100080008F0500088F0500088F0500088F05000800
:100090008F0500088F0500088F0500088F050008F0
:1000A0008F0500088F0500088F0500088F050008E0
:1000B0008F0500088F0500088F0500088F050008D0
:1000C0008F0500088F0500088F0500088F050008C0
:1000D0008F050008DF0300088F0500088F05000862
:1000E0008F0500088F0500088F0500088F050008A0
:1000F0008F0500088F0500088F0500088F05000890
:100100008F0500088F0500088F0500088F0500087F
:100110008F0500088F0500088F0500088F0500086F
:100120008F0500088F0500088F0500088F0500085F
:100130008F0500088F0500088F0500088F0500084F
:100140008F0500088F0500088F0500088F0500083F
:100150008F0500088F0500088F0500088F0500082F
:100160008F0500088F0500088F0500088F0500081F
:100170008F0500088F0500088F0500088F0500080F
:100180008F050008DFF80CD002F05CF8004800474B
:10019000BB0200083004002000BF0100A0F10100F4
:1001A000FBD1704700B59BB001216B4800F09CFC6F
:1001B0000121080200F0DCFC002002906748039057
:1001C00067480490002005900120069000200790C9
:1001D00008904FF40060099080000A9040110B9045
:1001E00040020C9000200D9001200E9000200F90F6
:1001F000109002A95B4801F099FA0121594801F0D9
:10020000CFFA0820009003208DF8040000208DF81C
:1002100007006946544800F02DFA00201190129012
:100220001390149011A800F0E9FF002015908DF8AC
:10023000580001208DF859000020179019900120D6
:100240008DF8680015A945484C3800F0A8FF022336
:100250000122032141484C3801F02CF801213F488C
:100260004C3801F0D1F801213C484C3801F0C1F87C
:1002700001213A484C3800F0DDFF1BB000BD1CB531
:100280000121302000F030FC4020009001208DF84A
:10029000040000208DF8060003208DF805000120E1
:1002A0008DF807006946314800F0E4F90820009015
:1002B00069462F4800F0DEF91CBD1FB54FF000085D
:1002C000FFF7DDFF00F02FF900F0D4F8294801F026
:1002D000FDFFFFF767FF21484C3801F047F839E090
:1002E0002548FFF759FF1E48B0F80080404601F04E
:1002F000C4FD224908604FF08F412048006801F09A
:100300009DFC814601F0BEFD06464FF066321C4B57
:1003100001F0D4FC044601F0CBFD18490860084602
:10032000006801F0AFFD0646164A174B01F036FD96
:1003300004460D461148006801F0A4FD8146CDF841
:1003400008804A460B4611A0CDF80C80CDE9004547
:1003500001F0BCFFC4E70000010040004C20014058
:10036000040000201064024000000240001002401F
:1003700000140240C02B0008F0FFFF010000002025
:1003800066660A407B14AE47E17A843F5468652074
:1003900063757272656E742041442076616C756578
:1003A000203D2025342E3466562054656D703A2544
:1003B000342E3266202025642020307825780D0ADE
:1003C00000000000704700BFFEE700BFFEE700BF6F
:1003D000FEE700BFFEE7704770477047704710B5F3
:1003E00040F22551124800F089FE00281FD0104825
:1003F00000F0BFFD044621460EA001F067FF302C3F
:1004000003D10821194800F0ABF9312C03D10821A0
:10041000164800F0A3F9322C03D14021144800F013
:100420009FF9332C03D14021114800F097F910BDFA
:10043000001001400A0D555341525420487970650F
:10044000727465726D696E616C20496E746572724A
:1004500075707473205265636569766520612077D5
:100460006F72643A2025630A0D00000000140240F8
:100470000010024000B587B00121084600F034FBAF
:100480000121084600F030FB0121102000F070FB34
:1004900007220921354800F070F907220A21334864
:1004A00000F06BF94FF40070059002208DF81800F1
:1004B00000208DF81A0002208DF8190001208DF817
:1004C0001B0005A9294800F0D5F84FF4806005907D
:1004D00001208DF81A0000208DF81B0005A9234883
:1004E00000F0C8F84FF4E13001900020ADF80800AA
:1004F000ADF80A00ADF80C004FF44070ADF81000F4
:100500000C20ADF80E0001A9194800F07BFC012277
:1005100040F22551164800F0B6FD0121144800F0C4
:10052000F9FC07B000BD08B525208DF800000020BB
:100530008DF801008DF8020001208DF80300684657
:1005400001F029FA08BD014600BF704770B50446A6
:100550000D46E1B2064800F008FD00BF4021044806
:1005600000F0B6FD0028F9D0204670BD0000024022
:10057000001001400648804706480047FEE7FEE7B6
:10058000FEE7FEE7FEE7FEE7FEE7FEE7FEE7FEE743
:100590001B1B00088501000810B5044688488442EA
:1005A00008D10121084600F0F4FA0021012000F0F2
:1005B000F0FA5EE08348844208D10121022000F075
:1005C000E8FA0021022000F0E4FA52E07E4884427A
:1005D00008D10121042000F0DCFA0021042000F001
:1005E000D8FA46E07948844208D10121082000F079
:1005F000D0FA0021082000F0CCFA3AE07448844296
:1006000008D10121102000F0C4FA0021102000F0D0
:10061000C0FA2EE06F48844208D10121202000F06A
:10062000B8FA0021202000F0B4FA22E06A4884429F
:1006300008D10121402000F0ACFA0021402000F058
:10064000A8FA16E06548844208D10121802000F014
:10065000A0FA0021802000F09CFA0AE06048844261
:1006600007D10121801500F094FA0021A01500F0B7
:1006700090FA10BDF0B50A4600210023002400BF07
:100680003DE0012505FA01F3156805EA03049C42E3
:1006900034D105684F000326BE40B5430560157987
:1006A0004E00B5400668354305601579012D02D02E
:1006B0001579022D16D185684F000326BE40B5433B
:1006C000856055794E00B54086683543856045683C
:1006D00001268E40B5434560456896798E40B6B296
:1006E00035434560C5684F000326BE40B543C5602D
:1006F000D5794E00B540C6683543C560491C102900
:10070000BFD3F0BD4FF6FF7101600021017141714F
:100710008171C17170474FF480320A43C261C16177
:10072000C261C269C26970470246002013690B4268
:1007300001D0012000E0002070470146086980B226
:1007400070470246002053690B4201D0012000E0AF
:10075000002070470146486980B2704701837047A6
:10076000418370470AB1018300E0418370474161D2
:10077000704742694A4042617047F0B50023002447
:100780004D07ED0E02FA05F3CE1000F1200555F8E5
:1007900026504E07F70E0F26BE40B543CF1000F18E
:1007A000200646F82750CE1000F1200555F82650B7
:1007B00045EA0304CE1000F1200545F82640F0BDBF
:1007C000000002400004024000080240000C024009
:1007D000001002400014024000180240001C0240B9
:1007E00000200240F848006840F00100F649086027
:1007F0000020F54908310860F3480068F3490840D3
:10080000F1490860F248091D0860081F006820F4DB
:100810008020091F08600020EB490C3108607047F8
:100820000021E94A921C117011460870704710B5FA
:1008300001460022002300204A11012A02D1E24C85
:10084000236808E0022A03D1DF4C7034236802E0F9
:10085000DD4C7434236801F01F02012494401C42D3
:1008600001D0012000E0002010BD70B5002400255B
:10087000002600BF3120FFF7DAFF0646641CB4F5FE
:10088000A06F01D0002EF5D03120FFF7D0FF08B1C6
:10089000012500E00025284670BD01460020CA4A17
:1008A000106820F0F80040EAC10010607047C949A4
:1008B000086070470021C44A70321170117001281D
:1008C00002D004280AD104E00121BF4A703211701D
:1008D00005E00521BC4A7032117000E000BF00BF86
:1008E0007047BD490860704770B5049C41EA8215A5
:1008F0000126C6EB530645EA0645054345EA04656D
:10090000B14E361D356070BDB24908667047820130
:1009100042EA0172AC4B84331A607047AD49886675
:100920007047AC49C864704702460020A64B0833A4
:10093000186820F0EC6042EA01031843A24B083328
:1009400018607047024600209F4B0833186820F05B
:10095000784042EA010318439B4B08331860704704
:1009600001460020984A0832106820F0030008432E
:100970001060704794480830006800F00C00704721
:1009800001460020904A0832106820F0F000084329
:1009900010607047014600208B4A0832106820F42E
:1009A000E05008431060704701460020864A083234
:1009B000106820F4604040EAC10010607047F0B554
:1009C0000021002200240225002602237E4F083742
:1009D0003F6807F00C0121B1042905D0082937D15F
:1009E00005E07E4F076036E07D4F076033E0764FCD
:1009F0003F1D3F68C7F38056734F3F1D3F6807F0A8
:100A00003F036EB1764FB7FBF3F7DFF8BCC10CF1D3
:100A1000040CDCF800C0CCF3881C07FB0CF40CE0E1
:100A20006E4FB7FBF3F7DFF8A0C10CF1040CDCF854
:100A300000C0CCF3881C07FB0CF4634F3F1D3F68DC
:100A4000C7F301477F1C7D00B4FBF5F7076002E0A8
:100A5000624F076000BF00BF5B4F08373F6807F079
:100A6000F00109095F4F7A5C0768D7404760564F2D
:100A700008373F6807F4E051890A5A4F7A5C4768A3
:100A8000D7408760504F08373F6807F46041490BF3
:100A9000544F7A5C4768D740C760F0BD002100F42E
:100AA0004072B2F5407F0AD1474A0832116821F4FA
:100AB000F8114D4A02401143434A08321160424A3C
:100AC00070321268C0F30B031A433F4B70331A6045
:100AD000704741494439086070473F4940390860D0
:100AE000704742490860704739B1374A303212685E
:100AF0000243354B30331A6006E0334A3032126815
:100B00008243314B30331A60704739B12E4A343248
:100B1000126802432C4B34331A6006E02A4A3432FE
:100B200012688243284B34331A60704739B1264A21
:100B3000383212680243244B38331A6006E0224AE6
:100B4000383212688243204B38331A60704739B10B
:100B50001D4A4032126802431B4B40331A6006E0C4
:100B6000194A403212688243174B40331A6070476B
:100B700039B1154A443212680243134B44331A60A8
:100B800006E0114A4432126882430F4B44331A6024
:100B9000704739B10C4A1032126802430A4B1033C5
:100BA0001A6006E0084A103212688243064B10337E
:100BB0001A607047E1B1044A143212680243024BD2
:100BC00014331A6019E0000000380240FFFFF6FEFF
:100BD0001030002400004742800E47420024F400F9
:100BE00040787D010C000020FFFCFF0F5C014742B4
:100BF0005C4A126882435B4B1A60704739B1594AAC
:100C0000121D12680243574B1B1D1A6006E0554A1D
:100C1000121D12688243534B1B1D1A60704739B175
:100C2000504A0C32126802434E4B0C331A6006E0F5
:100C30004C4A0C32126882434A4B0C331A6070479C
:100C400039B1484A103212680243464B10331A60D9
:100C500006E0444A103212688243424B10331A6055
:100C6000704739B13F4A3C32126802433D4B3C3336
:100C70001A6006E03B4A3C3212688243394B3C33EF
:100C80001A60704739B1374A403212680243354B17
:100C900040331A6006E0334A403212688243314BD7
:100CA00040331A60704739B12E4A44321268024309
:100CB0002C4B44331A6006E02A4A443212688243BD
:100CC000284B44331A60704739B1264A4C321268B7
:100CD0000243244B4C331A6006E0224A4C3212681D
:100CE0008243204B4C331A60704739B11D4A503251
:100CF000126802431B4B50331A6006E0194A503207
:100D000012688243174B50331A60704739B1154A45
:100D1000D21F12780243134BDB1F1A7008E0114AEE
:100D2000D21F1278C343DBB21A400E4BDB1F1A707E
:100D300070470C486030006840F0807009496031AD
:100D40000860704701460020064A083A12680A42C5
:100D500001D0012000E0002070470249891F08707F
:100D6000704700001438024010B50446F74884422A
:100D700008D101211020FFF763FF00211020FFF7A9
:100D80005FFF3EE0F248844209D101214804FFF7A9
:100D900046FF00214FF40030FFF741FF31E0ED48FE
:100DA000844209D101218804FFF739FF00214FF463
:100DB0008020FFF734FF24E0E748844209D1012175
:100DC000C804FFF72CFF00214FF40020FFF727FF96
:100DD00017E0E248844209D101210805FFF71FFF0F
:100DE00000214FF48010FFF71AFF0AE0DC4884422C
:100DF00007D101212020FFF723FF00212020FFF74A
:100E00001FFF10BD2DE9FF4705460E460024A146F1
:100E100000BFA046B08900B100BF2C8A24F4405422
:100E2000F08804432C82AC8941F20C608443B08882
:100E300031890843718908430443AC81AC8A24F4A6
:100E40004074B0890443AC826846FFF7B8FDBF48E0
:100E5000854202D0C248854202D1DDF80C9001E003
:100E6000DDF80890A88910F4004F08D009EBC900FC
:100E700000EB091031684900B0FBF1F707E009EB1E
:100E8000C90000EB091031688900B0FBF1F764205C
:100E9000B7FBF0F004012009642101FB1078A88958
:100EA00010F4004F08D0322000EBC800B0FBF1F086
:100EB00000F00700044308E0322000EB0810642132
:100EC000B0FBF1F000F00F0004432C81BDE8FF8778
:100ED0004FF41651016000218180C18001810C21F5
:100EE000418100218181704710B502460020108A9F
:100EF00020F470600B884C8823438C882343CC8873
:100F000023431843108210BD00210180418081805D
:100F1000C180704721B1828942F40052828104E08D
:100F200082894DF6FF731A4082817047028B02F46A
:100F30007F420283028B0A430283704721B1828978
:100F400042F40042828103E08289C2F30E02828170
:100F5000704721B1828A42F40062828204E0828A70
:100F60004FF2FF731A4082827047C1F308028280F9
:100F7000704701468888C0F308007047028A4FF620
:100F8000F0731A400282028A0A430282704721B13A
:100F9000828942F00202828104E082894FF6FD7369
:100FA0001A408281704782894FF2FF731A40828112
:100FB00082890A4382817047028A4FF6DF731A40A2
:100FC0000282028A0A430282704721B1028A42F4F5
:100FD0008042028204E0028A4BF6FF731A400282CA
:100FE0007047818941F001018181704721B1828A76
:100FF00042F00802828204E0828A4FF6F7731A40B8
:1010000082827047028BD2B20283028B42EA0122B3
:101010000283704721B1828A42F02002828204E07A
:10102000828A4FF6DF731A408282704721B1828A2A
:1010300042F01002828204E0828A4FF6EF731A4077
:1010400082827047828A4FF6FB731A408282828ABC
:101050000A438282704721B1828A42F00202828270
:1010600004E0828A4FF6FD731A408282704710B501
:101070001AB1838A0B43838204E0838ACC43A4B2EF
:101080002340838210BDF0B50346002400260025CE
:101090000020A1F510676A3F00D100BF1846C1F3D8
:1010A000421401F01F06012707FA06F5012C01D1B1
:1010B0000C3004E0022C01D1103000E014301AB1E1
:1010C00007682F43076002E00768AF430760F0BD81
:1010D00002460020B1F5007F00D100BF13880B420B
:1010E00001D0012000E00020704701F40072B2F549
:1010F000007F00D100BFCA430280704770B502462E
:101100000024002300250020A1F510666A3E00D1CE
:1011100000BFC1F3421501F01F03012606FA03F3D5
:10112000012D02D19689334006E0022D02D1168AA4
:10113000334001E0968A33400C12012606FA04F48B
:101140001688344073B16CB101200CE000100140EE
:101150000044004000480040004C00400050004067
:1011600000140140002070BD10B500220023A1F53D
:1011700010646A3C00D100BF0A1201249440A3B25B
:10118000DC43048010BD000010B501210802FFF708
:1011900057FD00214FF48070FFF752FD10BD30B5B0
:1011A0000246002000235068F94C20400D790C685D
:1011B00044EA0524204350609068F64C2040D1E971
:1011C00003542C438D682C434D7944EA4504204355
:1011D0009060D06A20F470000C7D641EE4B223435A
:1011E00040EA0350D06230BD0021016001714171BD
:1011F0008160C16001610121017570470021E64AEB
:101200001168E64A01EA0201D0E9002342EA03023A
:10121000836842EA0302C36842EA030242EA010128
:10122000DF4AC2F804137047002101604160816009
:10123000C160704721B1826842F00102826003E020
:10124000826822F00102826070470A4600214168EC
:10125000D44B19401143416070474162826270472C
:101260000A460021416821F01F0111434160704787
:1012700038B1C949096841F40001C94AC2F80413E8
:1012800006E0C549096821F40001C54AC2F8041303
:10129000704738B1C049096841F48001C04AC2F8BA
:1012A000041306E0BC49096821F48001BC4AC2F875
:1012B00004137047F0B504460D4600200021092DA7
:1012C00011DDE068A5F10A0606EB4607072606FAD7
:1012D00007F18843A5F10A0606EB460603FA06F174
:1012E0000843E0600CE0206905EB4507072606FA95
:1012F00007F1884305EB450603FA06F10843206130
:10130000072A0FDA606B561E06EB86071F2606FAC1
:1013100007F18843561E06EB860605FA06F10843D8
:10132000606322E00D2A0FDA206BD61F06EB8607DA
:101330001F2606FA07F18843D61F06EB860605FA34
:1013400006F10843206310E0E06AA2F10D0606EB07
:1013500086071F2606FA07F18843A2F10D0606EB61
:10136000860605FA06F10843E062F0BD816841F0A7
:10137000804181607047014600208A6812F4800F26
:1013800001D0012000E00020704721B1826842F4C2
:101390008062826003E0826822F48062826070472B
:1013A00021B1826842F00202826003E0826822F08A
:1013B00002028260704710B50A460021002341688E
:1013C00021F46041531E41EA4331416010BD21B117
:1013D000426842F40062426003E0426822F4006224
:1013E000426070470146C86C80B270476E48006822
:1013F000704721B1826842F48072826003E08268A3
:1014000022F480728260704721B1826842F40072D7
:10141000826003E0826822F400728260704738B113
:101420005D49096841F400515D4AC2F8041306E0C1
:101430005949096821F40051594AC2F80413704708
:10144000F0B504461546002000220026092911DDCA
:10145000E068A1F10A0707EB470C072707FA0CF22F
:101460009043A1F10A0707EB470703FA07F210437D
:10147000E0600CE0206901EB410C072707FA0CF251
:10148000904301EB410703FA07F210432061A06B80
:10149000C0F30156EF1C06F1010CA7EB0C0707EB9C
:1014A000870C1F2707FA0CF29043EF1C06F1010C82
:1014B000A7EB0C0707EB870701FA07F21043A063BD
:1014C000F0BD10B50A4600210023816B21F44011C4
:1014D000531E41EA0351816310BD10B5002303463A
:1014E0000B441A6010BD0A460021816821F4702166
:1014F0001143816070470A460021816821F4401140
:10150000114381607047816841F4800181607047B8
:10151000014600208A6812F4800F01D0012000E00B
:101520000020704721B1426842F48062426003E0CB
:10153000426822F480624260704721B1426842F4FE
:101540008052426003E0426822F480524260704759
:1015500002460023134601F128000344186880B2B4
:10156000704710B50B460021D9B2012404FA01F1ED
:101570001AB144680C43446002E044688C43446000
:1015800010BD0246002013680B420FD001200EE070
:10159000FFFEFFFCFDF7FFC004230140E030FCFF2D
:1015A00000200140FFFD3FFF08230140002070475D
:1015B000CA430260704770B5024600200023002431
:1015C0000B12556801268E4005EA060415681D4277
:1015D00002D00CB1012000E0002070BD00220A12F0
:1015E000D343036070470000016821F001010160EE
:1015F0000021016041608160C16001612121416180
:10160000DA49884204D13D21D84A103A91608CE0F1
:10161000D6491831884205D14FF47461D34A103A43
:10162000916082E0D1493031884205D14FF4741184
:10163000CE4A103A916078E0CC494831884205D1D1
:101640004FF07461C94A103A91606EE0C749603149
:10165000884204D1C649C54A103AD16065E0C34901
:101660007831884204D1C349C04A103AD1605CE065
:10167000BE499031884204D1BF49BC4A103AD1607A
:1016800053E0BA49A831884205D14FF03D51B74ADD
:10169000103AD16049E0B949884204D13D21B74AA6
:1016A000083A116041E0B5491831884205D14FF43C
:1016B0007461B24A083A116037E0B049303188426B
:1016C00005D14FF47411AD4A083A11602DE0AB49D1
:1016D0004831884205D14FF07461A84A083A116038
:1016E00023E0A6496031884204D1A149A34A121FD0
:1016F00011601AE0A1497831884204D19D499F4A7E
:10170000121F116011E09D499031884204D19A491D
:101710009A4A121F116008E09849A831884204D102
:101720004FF03D51954A121F1160704710B50022CD
:101730000268934B1A40CC680B6823434C692343DF
:101740008C692343CC6923430C6A23434C6A2343AB
:101750008C6A23434C6B23438C6B23431A430260F4
:10176000426922F00702D1E90B3423431A43426154
:101770000B6943604B6883608B68C36010BD0021B8
:10178000016041608160C160016141618161C1614D
:10179000016241628162C16201634163816370479A
:1017A00021B1026842F00102026003E0026822F007
:1017B00001020260704721B1026842F400420260F7
:1017C00003E0026822F400420260704721B102681F
:1017D00042F02002026003E0026822F02002026070
:1017E0007047416070470146486880B2704722B137
:1017F000036843F40023036003E0036823F4002339
:1018000003600161704721B1026842F480220260E6
:1018100003E0026822F48022026070470AB101618D
:1018200000E0C1607047014600200A6812F4002FF2
:1018300001D0012000E000207047014600200A6826
:1018400012F0010F01D0012000E000207047014696
:1018500000204A6902F03800704730B503460A4656
:1018600000200024454DAB4202D24049103901E02E
:101870004249103912F0005F01D04C6800E00C685A
:10188000404D2C40144201D0012000E0002030BD2A
:1018900002463A4B9A4202D23448103801E03748A7
:1018A000103811F0005F03D0364B0B40C36002E0EC
:1018B000344B0B408360704710B511F0800F09D096
:1018C00022B1436943F08003436103E0436923F09D
:1018D0008003436180290BD02AB1036801F01E0404
:1018E0002343036004E0036801F01E04A343036084
:1018F00010BD70B502460020002400251F4EB242E4
:1019000002D21A4B103B01E01C4B103B1E4E3142E1
:1019100006D01E2606EAD124166806EA040502E06F
:10192000566906F0800511F0005F01D05C6800E0A8
:101930001C68144E34400C4202D00DB1012000E06E
:10194000002070BD02460D4B9A4202D20748103863
:1019500001E00A48103811F0005F03D0094B0B403A
:10196000C36002E0074B0B40836070471060024089
:101970003D000020400F002000003D201064024088
:101980003F801CF07D0F7D0F3C0F3C0F334901431E
:10199000334A1160704770B5002100230F22C478CC
:1019A00024B32F4C246804F4E064C4F5E064C4F369
:1019B0000721C1F10404E3B20A4144789C40E1B23A
:1019C0008478144021430C07210E264C057861557C
:1019D000047804F01F050124AC4005786D114FF028
:1019E000E02606EB8505C5F8004109E0047804F01F
:1019F0001F050124AC401C4D0678761145F82640A1
:101A000070BD1A4A0A400243154B1B1F1A607047EB
:101A100039B1134A121D12680243114B1B1D1A6083
:101A200006E00F4A121D126882430D4B1B1D1A60FF
:101A30007047042808D14FF0E021096941F0040102
:101A40004FF0E022116107E04FF0E021096921F039
:101A500004014FF0E0221161704700000000FA0518
:101A60000CED00E000E400E080E100E080FFFF1FFB
:101A700000210020674A126842F48032654B1A60E8
:101A800000BF644A126802F40030491C10B9B1F575
:101A9000A06FF6D15F4A126812F4003F01D0012016
:101AA00000E00020012837D15A4A08321268594B09
:101AB00008331A601A46126842F400421A601A4645
:101AC000126842F4A0521A60534A1B1F1A601A1F70
:101AD000126842F080721B1F1A6000BF4D4A1268E4
:101AE00012F0007FFAD040F203724C4B1A60494A60
:101AF0000832126822F00302464B08331A601A4675
:101B0000126842F002021A6000BF424A08321268AC
:101B100002F00C02082AF8D1704710B53D48006861
:101B200040F001003B49086000203A490831086054
:101B3000384800683A490840364908603948091D64
:101B40000860081F006820F48020091F086000203A
:101B500030490C310860FFF78BFF4FF000603249CD
:101B6000086010BD70B5002000220223002402216D
:101B7000284D08352D6805F00C0020B1042806D04A
:101B8000082834D107E0294D294E356033E0294D2E
:101B9000274E35602FE01F4D2D1D2D68C5F3805455
:101BA0001C4D2D1D2D6805F03F0154B1214DB5FB95
:101BB000F1F5184E361D3668C6F3881605FB06F299
:101BC00009E01A4DB5FBF1F5124E361D3668C6F325
:101BD000881605FB06F20F4D2D1D2D68C5F3014536
:101BE0006D1C6B00B2FBF3F5114E356003E00F4D39
:101BF0000F4E356000BF00BF064D08352D68C5F398
:101C000003150D4E705D0A4D2D68C540084E3560B8
:101C100070BD000000380240193C4005003C024005
:101C2000FFFFF6FE1030002408ED00E00024F40071
:101C30001C00002040787D012000002080EA010285
:101C400002F0004330B430F0004221F0004015D0E3
:101C5000A0B1C0F3C755C2F3C754C2F31601C0F315
:101C60001600651B41F4000140F400007D358142FF
:101C700001D36D1C00E04900002D02DA30BC0020C9
:101C800070474FF400020024814201D3091A144323
:101C900052084FEA4101F7D151B1814202D14FF0D0
:101CA000004105E002D24FF0010101E06FF00101B7
:101CB00004EBC55030BC184400F05DB92DE9FE4F6F
:101CC00081EA030421F0004504F0004423F00041C0
:101CD0004FF0000A009450EA050302D052EA0103D3
:101CE00004D10020014603B0BDE8F08FC1F30A53D0
:101CF000C5F30A541C44A0FB02B3C5F3130545F415
:101D0000801CC1F3130141F480180CFB023300FB6B
:101D1000083EA4F2F334810A930A41EA8C5143EA63
:101D200088530194A1FB03474FEA9C2505FB0373ED
:101D30004FEA982601FB06373D05260545EA14358E
:101D4000BBEB06016EEB0503850E920E45EA8C1582
:101D500042EA8812A5FB0206261E67EB00070C0D5F
:101D600044EA0334A41947EB1350C1F313064FF0B0
:101D7000000319464FEA033343EA165343EA0403C8
:101D8000019CE5FB0201A4F10C040294009C4FEAC3
:101D90000632CDE900A400F031F9A4E72DE9F04DB9
:101DA00081EA030404F0004B21F0004714464FF091
:101DB000000A23F0004150EA070220D054EA010251
:101DC0001DD0C1F30A550246C1F31300C7F30A56EA
:101DD000C7F3130340F4801143F48013A6EB050806
:101DE000101BD64608F2FD3873EB010002D308F150
:101DF000010801E092185B41B8F1000F03DA0020FE
:101E00000146BDE8F08D00204FF4801506460746D8
:101E10000EE0B2EB040C73EB010C04D3121B06436F
:101E200063EB01032F436D084FEA300092185B41CA
:101E300050EA050CEDD152EA030012D082EA040008
:101E400083EA0105284303D100224FF0004308E054
:101E5000101B8B4102D20122002302E06FF001022D
:101E600053101AEB060047EB085110EB0A0041EB48
:101E70000B01BDE8F04D00F0B4B8962300221146E6
:101E800000F082B800F0004230F000400DD0C10DEB
:101E900001F5607142EA01510022C0F316005207B9
:101EA00042EAD002400711437047002001467047C4
:101EB00001F0004230B421F0004150EA010306D0A5
:101EC0000B0DA3F56073C1F31301002B02DC30BCD2
:101ED00000207047440F44EAC104C100A01830BC80
:101EE00000EBC35000F047B830B50B460146002068
:101EF0002022012409E021FA02F59D4205D303FACC
:101F000002F5491B04FA02F52844151EA2F101024C
:101F1000F1DC30BD2DE9F05F0546002092469B467E
:101F200088460646814640241BE0284641464746EF
:101F3000224600F0A8F952465B46801A994110D318
:101F400010461946224600F08FF92D1A67EB01085A
:101F50004F4622460120002100F086F917EB0009C8
:101F60004E41201EA4F10104DFDC484631462A46DA
:101F70004346BDE8F09F0029A8BF7047401C4900B8
:101F800008BF20F00100704710B4B0FA80FC00FADE
:101F90000CF050EA010404BF10BC704749B1CCF109
:101FA000200421FA04F411FA0CF118BF0121214395
:101FB0000843A3EB0C01CB1D0106000A002BBEBF9A
:101FC000002010BC704700EBC35010440029A4BF90
:101FD00010BC7047401C490008BF20F0010010BC35
:101FE000704710B5002B08DA401C41F1000192182F
:101FF0005B411A4301D120F0010010BD2DE9F04DE5
:1020000092469B4611B1B1FA81F202E0B0FA80F239
:102010002032904600F028F906460F4640EA0A00B2
:1020200041EA0B0152465B46084303D1304639462C
:10203000BDE8F08D194652EA010015D0C8F1400202
:10204000504600F020F904460D4650465946424697
:1020500000F00AF9084301D0012000E00020044309
:1020600045EAE07526432F430A984FEAD625A0EBB0
:1020700008000A304FEA46534FF0000245EA475540
:102080004FEAD72402D500200146D1E701055019B7
:102090006141DDE9084500196941BDE8F04DA0E75F
:1020A0002DE9FE4F074681EA0300C00F0E4601905E
:1020B00021F0004123F00044B81AA14105D238466E
:1020C000314617461E460B46024623F00040104399
:1020D00004D13846314603B0BDE8F08F350DC5F365
:1020E0000A00C3F30A510290401A0090402868DAAF
:1020F000C3F3130040F4801B0198924620B10023E3
:10210000D2EB030A63EB0B0B00985946C0F1400277
:10211000504600F0A9F880460C4650465946009AB1
:1021200000F0C1F8C0197141EF1785EA11533B4324
:1021300040D0019A52B3009A012A11DC0022801A81
:102140004FF0004361EB055103EA05538018CDE9D8
:10215000002341F5801142462346FFF74FFFBAE7BF
:102160002E050025401B61EB0601401941F5801248
:10217000001852412818A6F5001343EB020140EA6B
:10218000D470294318EB0808644113E064084FEA4F
:1021900038084FF0000244EAC0744FEA0553801A31
:1021A00061EB0301801841F5801149084FEA3000C6
:1021B000801859414246234603B0BDE8F04FFFF76F
:1021C00010BF0198012240000023D0EB020263EB14
:1021D000E07301984FEAE074381A66EB0401EBE70C
:1021E00083F000435CE781F0004159E7C1F30A52F4
:1021F000C1F3130140F2FF3341F480119A4202DA35
:1022000000200146704740F233439A42A2F2334223
:1022100002DC524200F037B800F026B830B5002991
:1022200004DB4FF00044404264EB0101002B04DB6F
:102230004FF00044524264EB0303994208BF9042BE
:1022400030BD0000064C074D06E0E06840F0010399
:1022500094E8070098471034AC42F6D3FDF796FF98
:10226000082C0008282C0008202A04DB203A00FA59
:1022700002F1002070479140C2F1200320FA03F3DD
:10228000194390407047202A04DB203A21FA02F0DB
:102290000021704721FA02F3D040C2F120029140A0
:1022A000084319467047202A06DBCB17203A41FA2B
:1022B00002F043EAE071704741FA02F3D040C2F104
:1022C0002002914008431946704700000FB4054BA7
:1022D00010B503A9044A029800F0C4F810BC5DF8D8
:1022E00014FB00004D0500080800002002E008C8AB
:1022F000121F08C1002AFAD170477047002001E080
:1023000001C1121F002AFBD1704700002DE9FF5FB9
:10231000DDE90210020DDDF838B001430FD10F984E
:1023200001244BA3012807D000980F9AC0E900317F
:10233000C0E90242BDE8FF9F6FEA0B01F4E7A2F299
:10234000FF3244F61050424315140F9801280ED066
:10235000A5EB0B00401C4FF000043E4EDFF8F89058
:10236000B0F1000AA04605DACAF1000717E0CBF188
:102370000000F0E7074612E0F80707D02246334690
:1023800040464946FFF79AFC804689462246334636
:1023900010461946FFF792FC04460E467F10002FA8
:1023A000EAD1DDE90201BAF1000F42464B4602DAFA
:1023B000FFF784FC01E0FFF7F1FC04460E46002223
:1023C000264BFFF72BFF03D84FF0FF30014607E005
:1023D0000022234B20463146FFF762FEFFF706FF3F
:1023E000102409E0002C0ADB0A220023FFF792FDEB
:1023F000019B30321A55641E50EA0102F2D1641C6E
:10240000019AC4F1110314440F9A012A09D0012240
:10241000084301D15B450FDD4FF0000205F10105D6
:102420000DE0084303D1A3EB0B056D1E09E000206E
:102430004FF0110B0F9088E701DA00226D1E002A81
:1024400083D000980F99C0E90231C0E9004571E7D7
:1024500030000000000024400000F03F0000F04386
:102460000000E03F2DE9FF4F95B006469A468946A9
:10247000002521E2252801D01799A6E00024F9497A
:102480002746761C4FF0010803943278203A08FA68
:1024900002F0084202D00443761CF6E730782A287E
:1024A00011D06FF02F023078A0F13001092916D831
:1024B000039944F0020401EB810102EB410108445D
:1024C000761C0390EFE759F8041B0391002903DA07
:1024D000484244F40054039044F00204761C3078DF
:1024E0002E2816D116F8010F44F004042A280DD026
:1024F0006FF02F013078A0F13002092A09D807EBDC
:10250000870201EB42028718761CF3E759F8047B37
:10251000761C30786C280FD006DC4C2817D0682841
:102520000DD06A2814D104E0742810D07A280FD175
:102530000DE044F400140AE044F4801401E044F493
:1025400040147178814202D1761C04F58014761C07
:1025500096F800C0BCF1660F10D01ADCBCF1580F21
:1025600070D00CDCBCF1000F6DD0BCF1450FF3D086
:10257000BCF1460FF0D0BCF1470F24D1A4E1BCF16F
:10258000630F40D0BCF1640F74D0BCF1650F1AD159
:102590009AE1BCF1700F6ED00CDCBCF1670FEDD08E
:1025A000BCF1690F75D0BCF16E0F12D0BCF16F0F8A
:1025B00009D1B3E0BCF1730F2FD0BCF1750F76D009
:1025C000BCF1780F74D017996046524690476D1C45
:1025D00070E1C4F30250022809D003280DD0D9F8C5
:1025E000001004280DD00D6009F1040962E1D9F84A
:1025F0000010EA17C1E90052F6E7D9F800100D8083
:10260000F2E70D70F0E759F8041B8DF80010002078
:102610008DF80100EB46012003E059F804BB4FF0B0
:10262000FF3061074FF0000102D40FE008F1010113
:102630008846B94211DA8045F8DB1BF808100029FA
:10264000F4D10AE060E03BE108F1010188468142F3
:10265000FADB1BF808100029F6D103985346A0EBCB
:10266000080721463846179A00F091FA284400EBF3
:10267000080506E00DE049E01BF8010B52461799EA
:102680009047B8F10108F7D2534621463846179AC9
:102690000DE10A21C4F302524FF0000B0091022A0F
:1026A00007D059F8040BC117032A0AD00BE024E025
:1026B00025E009F1070020F00702F2E80201914647
:1026C00005E000B2C117042A01D140B2C1170029A8
:1026D00006DA0A460021404261EB02012D2202E0A7
:1026E000220504D52B228DF80420012203E0E20705
:1026F00001D02022F7E7904654E00A2100E01021A3
:102700004FF0000B00910DE0102008E010204FF07A
:10271000000B44F004040827009003E008204FF069
:10272000000B0090C4F30252022A05D059F8040BA2
:102730000021032A08D009E009F1070020F0070270
:10274000F2E80201914605E080B20021042A01D19D
:10275000C0B200214FF00008220723D5BCF1700F52
:1027600028D0009B83F0100353EA0B0309D150EAF1
:10277000010206D030228DF804208DF805C0022217
:102780009046009B83F0080353EA0B030AD150EAFA
:10279000010201D1620705D530228DF804204FF0E7
:1027A00001087F1EBCF1580F09D02FA20C920CAA71
:1027B000029211E040228DF804200122E0E72FA2CE
:1027C000F4E75B46009AFFF7A5FB0C9B9B5C029A23
:1027D000A2F101020292137050EA0102F1D10298B3
:1027E00004A9A1EB000000F1200B600702D524F43E
:1027F000803400E001275F4502DDA7EB0B0000E01D
:10280000002000EB0B01009003984144A0EB010075
:102810000390E00306D453462146179A039800F02C
:10282000B6F90544002706E001A85246C05D179995
:1028300090476D1C7F1C4745F6DBE0030CD55346E3
:102840002146179A039800F0A2F9054404E03020CD
:102850005246179990476D1C0099481E0090002918
:10286000F5DC1EE0092801003031323334353637CB
:1028700038396162636465660000000030313233CC
:10288000343536373839414243444546000000006C
:102890000298029952460078491C02911799904774
:1028A0006D1CBBF10001ABF1010BF1DC50E100F05C
:1028B0005BF9054406F10106307800287FF4DAADB3
:1028C00019B02846BDE8F08F600700D4062709F14B
:1028D000070020F00701F1E80220894600F00043DC
:1028E000190001D09DA109E0210501D59CA105E0B9
:1028F000E10701D09BA101E0AFF2840120F0004389
:102900001391BCF1650F11D009DCBCF1450F0DD05E
:10291000BCF1460F20D0BCF1470F3ED13EE0BCF1E8
:10292000660F19D0BCF1670F7CD137E00021112F61
:1029300001DB112000E0781CCDE9000104A90CA8FE
:10294000FFF7E4FCDDE90D010C9A4FF0000B07F1F5
:102950000108109200914CE04FF000400097CDE943
:10296000018004A90CA8FFF7D1FCDDE90E20DDE908
:102970000C314FF0000B90461093009218B907F1FC
:10298000010001EB0008B7EB080003D4C0F1FF3BE6
:1029900007F10108A8EB0700019043E0012F00DADE
:1029A00001270021112F01DD112000E03846CDE97B
:1029B000000104A90CA8FFF7A9FCDDE90D010C9AA0
:1029C00000914FF0000BB846109221070CD40099EB
:1029D000414500DA8846B8F1010F05DD109AA8F1EB
:1029E0000101515C302908D0B84202DA10F1040F1D
:1029F00006DA0121CDE9011014E0A8F10101E9E7AF
:102A0000002803DC8344A8EB000102E0411C41459F
:102A100000DD8846A0EB0B0000F1010001904FF0B3
:102A200000400290200705D40198404502DB4FF09A
:102A3000FF30019000208DF84B0002980DF14B07FC
:102A4000B0F1004F26D002200C902B200D90029860
:102A500000280CDA404202902D200D9007E00A2158
:102A60000298FFF741FA3031029007F8011D0C99E6
:102A7000481E0C900029F2DC02980028EFD1A7F143
:102A800001010D980870307800F0200040F04500FA
:102A900007F8020D11A8A0EB070000F10700029053
:102AA0001398007800B1012000EB0801019801EBB8
:102AB000E071029801440398A0EB0100A0F101002D
:102AC0000390E00306D453462146179A039800F07A
:102AD0005EF805441398007820B152461799904744
:102AE00005F10105E00322D553462146179A0398C4
:102AF00000F04DF805441AE0BBF1000F07DB009829
:102B0000584504DD1098179910F80B0001E017994B
:102B100030205246904701986D1C401E0BF1010B6E
:102B2000019004D12E205246179990476D1CB8F1A0
:102B30000001A8F10108DFDC05E017F8010B52469F
:102B4000179990476D1C0299481E02900029F4DCE9
:102B500053462146179A0398A9E600002D0000006D
:102B60002B000000200000002DE9F0410446002564
:102B700017461E46880405D406E039462020B04793
:102B800005F10105641EF8D52846BDE8F0812DE960
:102B9000F0410446002590461E46C80301D5302763
:102BA00000E02027880405D506E041463846B047B6
:102BB00005F10105641EF8D52846BDE8F081000046
:102BC0000D0A2A2A2A2A2A2A2A2A2A2A2A2A2A2AA2
:102BD0002A2A2A2A2A2A2A2A2A2A2A2A2A2A2A2A55
:102BE0002A2A2A2A2A2A2A2A2A2A2A2A2A2A2A2A45
:102BF0002A2A2A2A2A2A2A2A2A2A2A2A2A2A2A2A35
:102C00002A2A0D0A00000000282C000800000020DD
:102C100030000000EC220008582C00083000002092
:102C200000040000FC22000800000000000000007A
:102C30000000000000000000010203040102030480
:102C400006070809000E270700000000000000002A
:082C5000010203040607080954
:040000050800018569
:00000001FF
