ARM Linker, 4.1 [Build 894] [Professional (MDK + RL-ARM)]

==============================================================================

Section Cross References

    main.o(.text) refers to stm32f2xx_rcc.o(.text) for RCC_AHB1PeriphClockCmd
    main.o(.text) refers to stm32f2xx_dma.o(.text) for DMA_Init
    main.o(.text) refers to stm32f2xx_gpio.o(.text) for GPIO_Init
    main.o(.text) refers to stm32f2xx_adc.o(.text) for ADC_CommonInit
    main.o(.text) refers to misc.o(.text) for NVIC_PriorityGroupConfig
    main.o(.text) refers to systick.o(.text) for delay_init
    main.o(.text) refers to tim_conf.o(.text) for Tim2_Init
    main.o(.text) refers to usart.o(.text) for USART_Configuration
    main.o(.text) refers to printfa.o(i.__0printf) for __2printf
    main.o(.text) refers to stm32f2xx_tim.o(.text) for TIM_ClearITPendingBit
    main.o(.text) refers to ffltui.o(.text) for __aeabi_ui2f
    main.o(.text) refers to fdiv.o(.text) for __aeabi_fdiv
    main.o(.text) refers to f2d.o(.text) for __aeabi_f2d
    main.o(.text) refers to dmul.o(.text) for __aeabi_dmul
    main.o(.text) refers to d2f.o(.text) for __aeabi_d2f
    main.o(.text) refers to main.o(.data) for ADC_ConvertedValue
    main.o(.text) refers to main.o(.constdata) for .constdata
    stm32f2xx_it.o(.text) refers to stm32f2xx_usart.o(.text) for USART_GetITStatus
==============================================================================

Removing Unused input sections from the image.

    Removing startup_stm32f2xx.o(HEAP), (512 bytes).
    Removing core_cm3.o(.emb_text), (32 bytes).

2 unused section(s) (total 544 bytes) removed from the image.

==============================================================================

Image Symbol Table

    Local Symbols

    Symbol Name                              Value     Ov Type        Size  Object(Section)

    ../../microlib/d2f.c                     0x00000000   Number         0  d2f.o ABSOLUTE
    ../../microlib/division.c                0x00000000   Number         0  uldiv.o ABSOLUTE
    ../../microlib/division.c                0x00000000   Number         0  uidiv.o ABSOLUTE
    ../../microlib/f2d.c                     0x00000000   Number         0  f2d.o ABSOLUTE
    ../../microlib/fpadd.c                   0x00000000   Number         0  dadd.o ABSOLUTE
    ../../microlib/fpdiv.c                   0x00000000   Number         0  ddiv.o ABSOLUTE
    ../../microlib/fpdiv.c                   0x00000000   Number         0  fdiv.o ABSOLUTE
    ../../microlib/fpepilogue.c              0x00000000   Number         0  depilogue.o ABSOLUTE
    ../../microlib/fpepilogue.c              0x00000000   Number         0  fepilogue.o ABSOLUTE
    ../../microlib/fpfix.c                   0x00000000   Number         0  dfixul.o ABSOLUTE
    ../../microlib/fpflt.c                   0x00000000   Number         0  ffltui.o ABSOLUTE
    ../../microlib/fpmul.c                   0x00000000   Number         0  dmul.o ABSOLUTE
    ../../microlib/init/entry.s              0x00000000   Number         0  entry7b.o ABSOLUTE
    ../../microlib/init/entry.s              0x00000000   Number         0  entry7a.o ABSOLUTE
    ../../microlib/init/entry.s              0x00000000   Number         0  entry5.o ABSOLUTE
    ../../microlib/init/entry.s              0x00000000   Number         0  entry2.o ABSOLUTE
    ../../microlib/init/entry.s              0x00000000   Number         0  entry8.o ABSOLUTE
    ../../microlib/init/entry.s              0x00000000   Number         0  entry.o ABSOLUTE
    ../../microlib/longlong.c                0x00000000   Number         0  llsshr.o ABSOLUTE
    ../../microlib/longlong.c                0x00000000   Number         0  llushr.o ABSOLUTE
    ../../microlib/longlong.c                0x00000000   Number         0  llshl.o ABSOLUTE
    ../../microlib/printf/printf.c           0x00000000   Number         0  printf4.o ABSOLUTE
    ../../microlib/printf/printf.c           0x00000000   Number         0  printf0.o ABSOLUTE
    ../../microlib/printf/printf.c           0x00000000   Number         0  printfb.o ABSOLUTE
    ../../microlib/printf/printf.c           0x00000000   Number         0  printf5.o ABSOLUTE
    ../../microlib/printf/printf.c           0x00000000   Number         0  printfa.o ABSOLUTE
    ../../microlib/printf/printf.c           0x00000000   Number         0  printf6.o ABSOLUTE
    ../../microlib/printf/printf.c           0x00000000   Number         0  printf7.o ABSOLUTE
    ../../microlib/printf/printf.c           0x00000000   Number         0  printf8.o ABSOLUTE
    ../../microlib/printf/printf.c           0x00000000   Number         0  printf1.o ABSOLUTE
    ../../microlib/printf/printf.c           0x00000000   Number         0  printf3.o ABSOLUTE
    ../../microlib/printf/printf.c           0x00000000   Number         0  printf2.o ABSOLUTE
    ../../microlib/printf/stubs.s            0x00000000   Number         0  stubs.o ABSOLUTE
    ../../microlib/stubs.s                   0x00000000   Number         0  useno.o ABSOLUTE
    ../../microlib/stubs.s                   0x00000000   Number         0  iusefp.o ABSOLUTE
    ..\Libraries\CMSIS\CM3\CoreSupport\core_cm3.c 0x00000000   Number         0  core_cm3.o ABSOLUTE
    ..\Libraries\CMSIS\CM3\DeviceSupport\ST\STM32F2xx\startup\arm\startup_stm32f2xx.s 0x00000000   Number         0  startup_stm32f2xx.o ABSOLUTE
    ..\Libraries\CMSIS\CM3\DeviceSupport\ST\STM32F2xx\system_stm32f2xx.c 0x00000000   Number         0  system_stm32f2xx.o ABSOLUTE
    ..\Libraries\STM32F2xx_StdPeriph_Driver\src\misc.c 0x00000000   Number         0  misc.o ABSOLUTE
    ..\Libraries\STM32F2xx_StdPeriph_Driver\src\stm32f2xx_adc.c 0x00000000   Number         0  stm32f2xx_adc.o ABSOLUTE
    ..\Libraries\STM32F2xx_StdPeriph_Driver\src\stm32f2xx_dma.c 0x00000000   Number         0  stm32f2xx_dma.o ABSOLUTE
    ..\Libraries\STM32F2xx_StdPeriph_Driver\src\stm32f2xx_gpio.c 0x00000000   Number         0  stm32f2xx_gpio.o ABSOLUTE
    ..\Libraries\STM32F2xx_StdPeriph_Driver\src\stm32f2xx_rcc.c 0x00000000   Number         0  stm32f2xx_rcc.o ABSOLUTE
    ..\Libraries\STM32F2xx_StdPeriph_Driver\src\stm32f2xx_tim.c 0x00000000   Number         0  stm32f2xx_tim.o ABSOLUTE
    ..\Libraries\STM32F2xx_StdPeriph_Driver\src\stm32f2xx_usart.c 0x00000000   Number         0  stm32f2xx_usart.o ABSOLUTE
    ..\User\SysTick\stm32f10x_systick.c      0x00000000   Number         0  stm32f10x_systick.o ABSOLUTE
    ..\User\SysTick\systick.c                0x00000000   Number         0  systick.o ABSOLUTE
    ..\User\main.c                           0x00000000   Number         0  main.o ABSOLUTE
    ..\User\stm32f2xx_it.c                   0x00000000   Number         0  stm32f2xx_it.o ABSOLUTE
    ..\User\usart.c                          0x00000000   Number         0  usart.o ABSOLUTE
    ..\\Libraries\\CMSIS\\CM3\\CoreSupport\\core_cm3.c 0x00000000   Number         0  core_cm3.o ABSOLUTE
    cdrcmple.s                               0x00000000   Number         0  cdrcmple.o ABSOLUTE
    dc.s                                     0x00000000   Number         0  dc.o ABSOLUTE
    handlers.s                               0x00000000   Number         0  handlers.o ABSOLUTE
    init.s                                   0x00000000   Number         0  init.o ABSOLUTE
    tim_conf.c                               0x00000000   Number         0  tim_conf.o ABSOLUTE
    RESET                                    0x08000000   Section      388  startup_stm32f2xx.o(RESET)
    .ARM.Collect$$$$00000000                 0x08000184   Section        0  entry.o(.ARM.Collect$$$$00000000)
    .ARM.Collect$$$$00000001                 0x08000184   Section        4  entry2.o(.ARM.Collect$$$$00000001)
    .ARM.Collect$$$$00000004                 0x08000188   Section        4  entry5.o(.ARM.Collect$$$$00000004)
    .ARM.Collect$$$$00000008                 0x0800018c   Section        0  entry7b.o(.ARM.Collect$$$$00000008)
    .ARM.Collect$$$$00000009                 0x0800018c   Section        8  entry8.o(.ARM.Collect$$$$00000009)
    .ARM.Collect$$$$00002712                 0x08000194   Section        4  entry2.o(.ARM.Collect$$$$00002712)
    __lit__00000000                          0x08000194   Data           4  entry2.o(.ARM.Collect$$$$00002712)
    .text                                    0x08000198   Section        0  main.o(.text)
    .text                                    0x08000400   Section        0  stm32f2xx_it.o(.text)
    .text                                    0x08000478   Section        0  usart.o(.text)
    .text                                    0x08000578   Section        0  stm32f10x_systick.o(.text)
    .text                                    0x08000614   Section        0  systick.o(.text)
    .text                                    0x080006e0   Section        0  tim_conf.o(.text)
    .text                                    0x080007ec   Section       36  startup_stm32f2xx.o(.text)
    .text                                    0x08000810   Section        0  stm32f2xx_gpio.o(.text)
    .text                                    0x08000a5c   Section        0  stm32f2xx_rcc.o(.text)
    .text                                    0x08000fe0   Section        0  stm32f2xx_usart.o(.text)
    .text                                    0x08001400   Section        0  stm32f2xx_adc.o(.text)
    .text                                    0x08001860   Section        0  stm32f2xx_dma.o(.text)
    .text                                    0x08001c04   Section        0  misc.o(.text)
    .text                                    0x08001ce8   Section        0  stm32f2xx_tim.o(.text)
    TI4_Config                               0x0800243f   Thumb Code    68  stm32f2xx_tim.o(.text)
    TI3_Config                               0x08002495   Thumb Code    64  stm32f2xx_tim.o(.text)
    TI2_Config                               0x080024eb   Thumb Code    68  stm32f2xx_tim.o(.text)
    TI1_Config                               0x08002541   Thumb Code    68  stm32f2xx_tim.o(.text)
    .text                                    0x08002924   Section        0  system_stm32f2xx.o(.text)
    SetSysClock                              0x08002925   Thumb Code   170  system_stm32f2xx.o(.text)
    .text                                    0x08002af0   Section        0  fdiv.o(.text)
    .text                                    0x08002b70   Section        0  dmul.o(.text)
    .text                                    0x08002c50   Section        0  ffltui.o(.text)
    .text                                    0x08002c5a   Section        0  f2d.o(.text)
    .text                                    0x08002c86   Section        0  d2f.o(.text)
    .text                                    0x08002cbe   Section        0  uidiv.o(.text)
    .text                                    0x08002cea   Section        0  uldiv.o(.text)
    .text                                    0x08002d4c   Section        0  fepilogue.o(.text)
    .text                                    0x08002d4c   Section        0  iusefp.o(.text)
    .text                                    0x08002db8   Section        0  depilogue.o(.text)
    .text                                    0x08002e76   Section        0  dadd.o(.text)
    .text                                    0x08002fc2   Section        0  ddiv.o(.text)
    .text                                    0x080030a0   Section        0  dfixul.o(.text)
    .text                                    0x080030d0   Section       40  cdrcmple.o(.text)
    .text                                    0x080030f8   Section       36  init.o(.text)
    .text                                    0x0800311c   Section        0  llshl.o(.text)
    .text                                    0x0800313a   Section        0  llushr.o(.text)
    .text                                    0x0800315a   Section        0  llsshr.o(.text)
    i.__0printf                              0x08003180   Section        0  printfa.o(i.__0printf)
    i.__scatterload_copy                     0x080031a0   Section       14  handlers.o(i.__scatterload_copy)
    i.__scatterload_null                     0x080031ae   Section        2  handlers.o(i.__scatterload_null)
    i.__scatterload_zeroinit                 0x080031b0   Section       14  handlers.o(i.__scatterload_zeroinit)
    i._fp_digits                             0x080031c0   Section        0  printfa.o(i._fp_digits)
    _fp_digits                               0x080031c1   Thumb Code   324  printfa.o(i._fp_digits)
    i._printf_core                           0x08003318   Section        0  printfa.o(i._printf_core)
    _printf_core                             0x08003319   Thumb Code  1782  printfa.o(i._printf_core)
    i._printf_post_padding                   0x08003a1c   Section        0  printfa.o(i._printf_post_padding)
    _printf_post_padding                     0x08003a1d   Thumb Code    38  printfa.o(i._printf_post_padding)
    i._printf_pre_padding                    0x08003a42   Section        0  printfa.o(i._printf_pre_padding)
    _printf_pre_padding                      0x08003a43   Thumb Code    48  printfa.o(i._printf_pre_padding)
    .constdata                               0x08003a74   Section       69  main.o(.constdata)
    .data                                    0x20000000   Section        8  main.o(.data)
    .data                                    0x20000008   Section        4  usart.o(.data)
    .data                                    0x2000000c   Section        5  systick.o(.data)
    delay_fac_us                             0x2000000c   Data           1  systick.o(.data)
    delay_fac_ms                             0x2000000e   Data           2  systick.o(.data)
    Status                                   0x20000010   Data           1  systick.o(.data)
    .data                                    0x20000011   Section       16  stm32f2xx_rcc.o(.data)
    APBAHBPrescTable                         0x20000011   Data          16  stm32f2xx_rcc.o(.data)
    .data                                    0x20000024   Section       20  system_stm32f2xx.o(.data)
    STACK                                    0x20000038   Section     1024  startup_stm32f2xx.o(STACK)

    Global Symbols

    Symbol Name                              Value     Ov Type        Size  Object(Section)

    BuildAttributes$$THM_ISAv4$P$D$K$B$S$PE$A:L22UL41UL21$X:L11$S22US41US21$IEEE1$IW$USESV6$~STKCKD$USESV7$~SHL$OTIME$ROPI$EBA8$MICROLIB$REQ8$PRES8$EABIv2 0x00000000   Number         0  anon$$obj.o ABSOLUTE
    __ARM_use_no_argv                        0x00000000   Number         0  main.o ABSOLUTE
    __use_no_errno                           0x00000000   Number         0  useno.o ABSOLUTE
    __use_no_exception_handling              0x00000000   Number         0  useno.o ABSOLUTE
    __use_no_fp                              0x00000000   Number         0  useno.o ABSOLUTE
    __use_no_heap                            0x00000000   Number         0  useno.o ABSOLUTE
    __use_no_heap_region                     0x00000000   Number         0  useno.o ABSOLUTE
    __use_no_semihosting                     0x00000000   Number         0  useno.o ABSOLUTE
    __use_no_semihosting_swi                 0x00000000   Number         0  useno.o ABSOLUTE
    __use_no_signal_handling                 0x00000000   Number         0  useno.o ABSOLUTE
    _printf_a                                0x00000000   Number         0  stubs.o ABSOLUTE
    _printf_c                                0x00000000   Number         0  stubs.o ABSOLUTE
    _printf_charcount                        0x00000000   Number         0  stubs.o ABSOLUTE
    _printf_d                                0x00000000   Number         0  stubs.o ABSOLUTE
    _printf_e                                0x00000000   Number         0  stubs.o ABSOLUTE
    _printf_f                                0x00000000   Number         0  stubs.o ABSOLUTE
    _printf_flags                            0x00000000   Number         0  stubs.o ABSOLUTE
    _printf_fp_dec                           0x00000000   Number         0  stubs.o ABSOLUTE
    _printf_fp_hex                           0x00000000   Number         0  stubs.o ABSOLUTE
    _printf_g                                0x00000000   Number         0  stubs.o ABSOLUTE
    _printf_i                                0x00000000   Number         0  stubs.o ABSOLUTE
    _printf_int_dec                          0x00000000   Number         0  stubs.o ABSOLUTE
    _printf_l                                0x00000000   Number         0  stubs.o ABSOLUTE
    _printf_lc                               0x00000000   Number         0  stubs.o ABSOLUTE
    _printf_ll                               0x00000000   Number         0  stubs.o ABSOLUTE
    _printf_lld                              0x00000000   Number         0  stubs.o ABSOLUTE
    _printf_lli                              0x00000000   Number         0  stubs.o ABSOLUTE
    _printf_llo                              0x00000000   Number         0  stubs.o ABSOLUTE
    _printf_llu                              0x00000000   Number         0  stubs.o ABSOLUTE
    _printf_llx                              0x00000000   Number         0  stubs.o ABSOLUTE
    _printf_longlong_dec                     0x00000000   Number         0  stubs.o ABSOLUTE
    _printf_longlong_hex                     0x00000000   Number         0  stubs.o ABSOLUTE
    _printf_longlong_oct                     0x00000000   Number         0  stubs.o ABSOLUTE
    _printf_ls                               0x00000000   Number         0  stubs.o ABSOLUTE
    _printf_mbtowc                           0x00000000   Number         0  stubs.o ABSOLUTE
    _printf_n                                0x00000000   Number         0  stubs.o ABSOLUTE
    _printf_o                                0x00000000   Number         0  stubs.o ABSOLUTE
    _printf_p                                0x00000000   Number         0  stubs.o ABSOLUTE
    _printf_percent                          0x00000000   Number         0  stubs.o ABSOLUTE
    _printf_pre_padding                      0x00000000   Number         0  stubs.o ABSOLUTE
    _printf_return_value                     0x00000000   Number         0  stubs.o ABSOLUTE
    _printf_s                                0x00000000   Number         0  stubs.o ABSOLUTE
    _printf_sizespec                         0x00000000   Number         0  stubs.o ABSOLUTE
    _printf_str                              0x00000000   Number         0  stubs.o ABSOLUTE
    _printf_truncate_signed                  0x00000000   Number         0  stubs.o ABSOLUTE
    _printf_truncate_unsigned                0x00000000   Number         0  stubs.o ABSOLUTE
    _printf_u                                0x00000000   Number         0  stubs.o ABSOLUTE
    _printf_wc                               0x00000000   Number         0  stubs.o ABSOLUTE
    _printf_wctomb                           0x00000000   Number         0  stubs.o ABSOLUTE
    _printf_widthprec                        0x00000000   Number         0  stubs.o ABSOLUTE
    _printf_x                                0x00000000   Number         0  stubs.o ABSOLUTE
    __decompress                              - Undefined Weak Reference
    _clock_init                               - Undefined Weak Reference
    __Vectors_Size                           0x00000184   Number         0  startup_stm32f2xx.o ABSOLUTE
    __Vectors                                0x08000000   Data           4  startup_stm32f2xx.o(RESET)
    __Vectors_End                            0x08000184   Data           0  startup_stm32f2xx.o(RESET)
    __main                                   0x08000185   Thumb Code     0  entry.o(.ARM.Collect$$$$00000000)
    _main_stk                                0x08000185   Thumb Code     0  entry2.o(.ARM.Collect$$$$00000001)
    _main_scatterload                        0x08000189   Thumb Code     0  entry5.o(.ARM.Collect$$$$00000004)
    __main_after_scatterload                 0x0800018d   Thumb Code     0  entry5.o(.ARM.Collect$$$$00000004)
    _main_clock                              0x0800018d   Thumb Code     0  entry7b.o(.ARM.Collect$$$$00000008)
    _main_init                               0x0800018d   Thumb Code     0  entry8.o(.ARM.Collect$$$$00000009)
    ADC1_CH4_DMA_Config                      0x08000199   Thumb Code   254  main.o(.text)
    NVIC_Config                              0x08000297   Thumb Code    64  main.o(.text)
    main                                     0x080002d7   Thumb Code    30  main.o(.text)
    TIM2_IRQHandler                          0x080002f5   Thumb Code    20  main.o(.text)
    DMA2_Stream0_IRQHandler                  0x08000309   Thumb Code   156  main.o(.text)
    Delay                                    0x080003a5   Thumb Code    12  main.o(.text)
    NMI_Handler                              0x08000401   Thumb Code     2  stm32f2xx_it.o(.text)
    HardFault_Handler                        0x08000403   Thumb Code     4  stm32f2xx_it.o(.text)
    MemManage_Handler                        0x08000407   Thumb Code     4  stm32f2xx_it.o(.text)
    BusFault_Handler                         0x0800040b   Thumb Code     4  stm32f2xx_it.o(.text)
    UsageFault_Handler                       0x0800040f   Thumb Code     4  stm32f2xx_it.o(.text)
    SVC_Handler                              0x08000413   Thumb Code     2  stm32f2xx_it.o(.text)
    DebugMon_Handler                         0x08000415   Thumb Code     2  stm32f2xx_it.o(.text)
    PendSV_Handler                           0x08000417   Thumb Code     2  stm32f2xx_it.o(.text)
    SysTick_Handler                          0x08000419   Thumb Code     2  stm32f2xx_it.o(.text)
    USART1_IRQHandler                        0x0800041b   Thumb Code    32  stm32f2xx_it.o(.text)
    USART_Configuration                      0x08000479   Thumb Code   178  usart.o(.text)
    USART_NVIC_Config                        0x0800052b   Thumb Code    32  usart.o(.text)
    _sys_exit                                0x0800054b   Thumb Code     6  usart.o(.text)
    fputc                                    0x08000551   Thumb Code    32  usart.o(.text)
    SysTick_SetReload                        0x08000579   Thumb Code     8  stm32f10x_systick.o(.text)
    SysTick_CounterCmd                       0x08000581   Thumb Code    54  stm32f10x_systick.o(.text)
    SysTick_ITConfig                         0x080005b7   Thumb Code    38  stm32f10x_systick.o(.text)
    SysTick_GetCounter                       0x080005dd   Thumb Code     8  stm32f10x_systick.o(.text)
    SysTick_GetFlagStatus                    0x080005e5   Thumb Code    46  stm32f10x_systick.o(.text)
    delay_init                               0x08000615   Thumb Code    50  systick.o(.text)
    delay_us                                 0x08000647   Thumb Code    62  systick.o(.text)
    _delay_ms                                0x08000685   Thumb Code    74  systick.o(.text)
    Tim2_Init                                0x080006e1   Thumb Code   260  tim_conf.o(.text)
    Reset_Handler                            0x080007ed   Thumb Code     8  startup_stm32f2xx.o(.text)
    ADC_IRQHandler                           0x08000807   Thumb Code     0  startup_stm32f2xx.o(.text)
    CAN1_RX0_IRQHandler                      0x08000807   Thumb Code     0  startup_stm32f2xx.o(.text)
    CAN1_RX1_IRQHandler                      0x08000807   Thumb Code     0  startup_stm32f2xx.o(.text)
    CAN1_SCE_IRQHandler                      0x08000807   Thumb Code     0  startup_stm32f2xx.o(.text)
    CAN1_TX_IRQHandler                       0x08000807   Thumb Code     0  startup_stm32f2xx.o(.text)
    CAN2_RX0_IRQHandler                      0x08000807   Thumb Code     0  startup_stm32f2xx.o(.text)
    CAN2_RX1_IRQHandler                      0x08000807   Thumb Code     0  startup_stm32f2xx.o(.text)
    CAN2_SCE_IRQHandler                      0x08000807   Thumb Code     0  startup_stm32f2xx.o(.text)
    CAN2_TX_IRQHandler                       0x08000807   Thumb Code     0  startup_stm32f2xx.o(.text)
    CRYP_IRQHandler                          0x08000807   Thumb Code     0  startup_stm32f2xx.o(.text)
    DCMI_IRQHandler                          0x08000807   Thumb Code     0  startup_stm32f2xx.o(.text)
    DMA1_Stream0_IRQHandler                  0x08000807   Thumb Code     0  startup_stm32f2xx.o(.text)
    DMA1_Stream1_IRQHandler                  0x08000807   Thumb Code     0  startup_stm32f2xx.o(.text)
    DMA1_Stream2_IRQHandler                  0x08000807   Thumb Code     0  startup_stm32f2xx.o(.text)
    DMA1_Stream3_IRQHandler                  0x08000807   Thumb Code     0  startup_stm32f2xx.o(.text)
    DMA1_Stream4_IRQHandler                  0x08000807   Thumb Code     0  startup_stm32f2xx.o(.text)
    DMA1_Stream5_IRQHandler                  0x08000807   Thumb Code     0  startup_stm32f2xx.o(.text)
    DMA1_Stream6_IRQHandler                  0x08000807   Thumb Code     0  startup_stm32f2xx.o(.text)
    DMA1_Stream7_IRQHandler                  0x08000807   Thumb Code     0  startup_stm32f2xx.o(.text)
    DMA2_Stream1_IRQHandler                  0x08000807   Thumb Code     0  startup_stm32f2xx.o(.text)
    DMA2_Stream2_IRQHandler                  0x08000807   Thumb Code     0  startup_stm32f2xx.o(.text)
    DMA2_Stream3_IRQHandler                  0x08000807   Thumb Code     0  startup_stm32f2xx.o(.text)
    DMA2_Stream4_IRQHandler                  0x08000807   Thumb Code     0  startup_stm32f2xx.o(.text)
    DMA2_Stream5_IRQHandler                  0x08000807   Thumb Code     0  startup_stm32f2xx.o(.text)
    DMA2_Stream6_IRQHandler                  0x08000807   Thumb Code     0  startup_stm32f2xx.o(.text)
    DMA2_Stream7_IRQHandler                  0x08000807   Thumb Code     0  startup_stm32f2xx.o(.text)
    ETH_IRQHandler                           0x08000807   Thumb Code     0  startup_stm32f2xx.o(.text)
    ETH_WKUP_IRQHandler                      0x08000807   Thumb Code     0  startup_stm32f2xx.o(.text)
    EXTI0_IRQHandler                         0x08000807   Thumb Code     0  startup_stm32f2xx.o(.text)
    EXTI15_10_IRQHandler                     0x08000807   Thumb Code     0  startup_stm32f2xx.o(.text)
    EXTI1_IRQHandler                         0x08000807   Thumb Code     0  startup_stm32f2xx.o(.text)
    EXTI2_IRQHandler                         0x08000807   Thumb Code     0  startup_stm32f2xx.o(.text)
    EXTI3_IRQHandler                         0x08000807   Thumb Code     0  startup_stm32f2xx.o(.text)
    EXTI4_IRQHandler                         0x08000807   Thumb Code     0  startup_stm32f2xx.o(.text)
    EXTI9_5_IRQHandler                       0x08000807   Thumb Code     0  startup_stm32f2xx.o(.text)
    FLASH_IRQHandler                         0x08000807   Thumb Code     0  startup_stm32f2xx.o(.text)
    FSMC_IRQHandler                          0x08000807   Thumb Code     0  startup_stm32f2xx.o(.text)
    HASH_RNG_IRQHandler                      0x08000807   Thumb Code     0  startup_stm32f2xx.o(.text)
    I2C1_ER_IRQHandler                       0x08000807   Thumb Code     0  startup_stm32f2xx.o(.text)
    I2C1_EV_IRQHandler                       0x08000807   Thumb Code     0  startup_stm32f2xx.o(.text)
    I2C2_ER_IRQHandler                       0x08000807   Thumb Code     0  startup_stm32f2xx.o(.text)
    I2C2_EV_IRQHandler                       0x08000807   Thumb Code     0  startup_stm32f2xx.o(.text)
    I2C3_ER_IRQHandler                       0x08000807   Thumb Code     0  startup_stm32f2xx.o(.text)
    I2C3_EV_IRQHandler                       0x08000807   Thumb Code     0  startup_stm32f2xx.o(.text)
    OTG_FS_IRQHandler                        0x08000807   Thumb Code     0  startup_stm32f2xx.o(.text)
    OTG_FS_WKUP_IRQHandler                   0x08000807   Thumb Code     0  startup_stm32f2xx.o(.text)
    OTG_HS_EP1_IN_IRQHandler                 0x08000807   Thumb Code     0  startup_stm32f2xx.o(.text)
    OTG_HS_EP1_OUT_IRQHandler                0x08000807   Thumb Code     0  startup_stm32f2xx.o(.text)
    OTG_HS_IRQHandler                        0x08000807   Thumb Code     0  startup_stm32f2xx.o(.text)
    OTG_HS_WKUP_IRQHandler                   0x08000807   Thumb Code     0  startup_stm32f2xx.o(.text)
    PVD_IRQHandler                           0x08000807   Thumb Code     0  startup_stm32f2xx.o(.text)
    RCC_IRQHandler                           0x08000807   Thumb Code     0  startup_stm32f2xx.o(.text)
    RTC_Alarm_IRQHandler                     0x08000807   Thumb Code     0  startup_stm32f2xx.o(.text)
    RTC_WKUP_IRQHandler                      0x08000807   Thumb Code     0  startup_stm32f2xx.o(.text)
    SDIO_IRQHandler                          0x08000807   Thumb Code     0  startup_stm32f2xx.o(.text)
    SPI1_IRQHandler                          0x08000807   Thumb Code     0  startup_stm32f2xx.o(.text)
    SPI2_IRQHandler                          0x08000807   Thumb Code     0  startup_stm32f2xx.o(.text)
    SPI3_IRQHandler                          0x08000807   Thumb Code     0  startup_stm32f2xx.o(.text)
    TAMP_STAMP_IRQHandler                    0x08000807   Thumb Code     0  startup_stm32f2xx.o(.text)
    TIM1_BRK_TIM9_IRQHandler                 0x08000807   Thumb Code     0  startup_stm32f2xx.o(.text)
    TIM1_CC_IRQHandler                       0x08000807   Thumb Code     0  startup_stm32f2xx.o(.text)
    TIM1_TRG_COM_TIM11_IRQHandler            0x08000807   Thumb Code     0  startup_stm32f2xx.o(.text)
    TIM1_UP_TIM10_IRQHandler                 0x08000807   Thumb Code     0  startup_stm32f2xx.o(.text)
    TIM3_IRQHandler                          0x08000807   Thumb Code     0  startup_stm32f2xx.o(.text)
    TIM4_IRQHandler                          0x08000807   Thumb Code     0  startup_stm32f2xx.o(.text)
    TIM5_IRQHandler                          0x08000807   Thumb Code     0  startup_stm32f2xx.o(.text)
    TIM6_DAC_IRQHandler                      0x08000807   Thumb Code     0  startup_stm32f2xx.o(.text)
    TIM7_IRQHandler                          0x08000807   Thumb Code     0  startup_stm32f2xx.o(.text)
    TIM8_BRK_TIM12_IRQHandler                0x08000807   Thumb Code     0  startup_stm32f2xx.o(.text)
    TIM8_CC_IRQHandler                       0x08000807   Thumb Code     0  startup_stm32f2xx.o(.text)
    TIM8_TRG_COM_TIM14_IRQHandler            0x08000807   Thumb Code     0  startup_stm32f2xx.o(.text)
    TIM8_UP_TIM13_IRQHandler                 0x08000807   Thumb Code     0  startup_stm32f2xx.o(.text)
    UART4_IRQHandler                         0x08000807   Thumb Code     0  startup_stm32f2xx.o(.text)
    UART5_IRQHandler                         0x08000807   Thumb Code     0  startup_stm32f2xx.o(.text)
    USART2_IRQHandler                        0x08000807   Thumb Code     0  startup_stm32f2xx.o(.text)
    USART3_IRQHandler                        0x08000807   Thumb Code     0  startup_stm32f2xx.o(.text)
    USART6_IRQHandler                        0x08000807   Thumb Code     0  startup_stm32f2xx.o(.text)
    WWDG_IRQHandler                          0x08000807   Thumb Code     0  startup_stm32f2xx.o(.text)
    GPIO_DeInit                              0x08000811   Thumb Code   220  stm32f2xx_gpio.o(.text)
    GPIO_Init                                0x080008ed   Thumb Code   144  stm32f2xx_gpio.o(.text)
    GPIO_StructInit                          0x0800097d   Thumb Code    18  stm32f2xx_gpio.o(.text)
    GPIO_PinLockConfig                       0x0800098f   Thumb Code    18  stm32f2xx_gpio.o(.text)
    GPIO_ReadInputDataBit                    0x080009a1   Thumb Code    18  stm32f2xx_gpio.o(.text)
    GPIO_ReadInputData                       0x080009b3   Thumb Code     8  stm32f2xx_gpio.o(.text)
    GPIO_ReadOutputDataBit                   0x080009bb   Thumb Code    18  stm32f2xx_gpio.o(.text)
    GPIO_ReadOutputData                      0x080009cd   Thumb Code     8  stm32f2xx_gpio.o(.text)
    GPIO_SetBits                             0x080009d5   Thumb Code     4  stm32f2xx_gpio.o(.text)
    GPIO_ResetBits                           0x080009d9   Thumb Code     4  stm32f2xx_gpio.o(.text)
    GPIO_WriteBit                            0x080009dd   Thumb Code    10  stm32f2xx_gpio.o(.text)
    GPIO_Write                               0x080009e7   Thumb Code     4  stm32f2xx_gpio.o(.text)
    GPIO_ToggleBits                          0x080009eb   Thumb Code     8  stm32f2xx_gpio.o(.text)
    GPIO_PinAFConfig                         0x080009f3   Thumb Code    70  stm32f2xx_gpio.o(.text)
    RCC_DeInit                               0x08000a5d   Thumb Code    60  stm32f2xx_rcc.o(.text)
    RCC_HSEConfig                            0x08000a99   Thumb Code    14  stm32f2xx_rcc.o(.text)
    RCC_GetFlagStatus                        0x08000aa7   Thumb Code    60  stm32f2xx_rcc.o(.text)
    RCC_WaitForHSEStartUp                    0x08000ae3   Thumb Code    48  stm32f2xx_rcc.o(.text)
    RCC_AdjustHSICalibrationValue            0x08000b13   Thumb Code    20  stm32f2xx_rcc.o(.text)
    RCC_HSICmd                               0x08000b27   Thumb Code     6  stm32f2xx_rcc.o(.text)
    RCC_LSEConfig                            0x08000b2d   Thumb Code    46  stm32f2xx_rcc.o(.text)
    RCC_LSICmd                               0x08000b5b   Thumb Code     6  stm32f2xx_rcc.o(.text)
    RCC_PLLConfig                            0x08000b61   Thumb Code    32  stm32f2xx_rcc.o(.text)
    RCC_PLLCmd                               0x08000b81   Thumb Code     6  stm32f2xx_rcc.o(.text)
    RCC_PLLI2SConfig                         0x08000b87   Thumb Code    14  stm32f2xx_rcc.o(.text)
    RCC_PLLI2SCmd                            0x08000b95   Thumb Code     6  stm32f2xx_rcc.o(.text)
    RCC_ClockSecuritySystemCmd               0x08000b9b   Thumb Code     6  stm32f2xx_rcc.o(.text)
    RCC_MCO1Config                           0x08000ba1   Thumb Code    28  stm32f2xx_rcc.o(.text)
    RCC_MCO2Config                           0x08000bbd   Thumb Code    28  stm32f2xx_rcc.o(.text)
    RCC_SYSCLKConfig                         0x08000bd9   Thumb Code    20  stm32f2xx_rcc.o(.text)
    RCC_GetSYSCLKSource                      0x08000bed   Thumb Code    12  stm32f2xx_rcc.o(.text)
    RCC_HCLKConfig                           0x08000bf9   Thumb Code    20  stm32f2xx_rcc.o(.text)
    RCC_PCLK1Config                          0x08000c0d   Thumb Code    20  stm32f2xx_rcc.o(.text)
    RCC_PCLK2Config                          0x08000c21   Thumb Code    22  stm32f2xx_rcc.o(.text)
    RCC_GetClocksFreq                        0x08000c37   Thumb Code   222  stm32f2xx_rcc.o(.text)
    RCC_RTCCLKConfig                         0x08000d15   Thumb Code    54  stm32f2xx_rcc.o(.text)
    RCC_RTCCLKCmd                            0x08000d4b   Thumb Code     8  stm32f2xx_rcc.o(.text)
    RCC_BackupResetCmd                       0x08000d53   Thumb Code     8  stm32f2xx_rcc.o(.text)
    RCC_I2SCLKConfig                         0x08000d5b   Thumb Code     6  stm32f2xx_rcc.o(.text)
    RCC_AHB1PeriphClockCmd                   0x08000d61   Thumb Code    34  stm32f2xx_rcc.o(.text)
    RCC_AHB2PeriphClockCmd                   0x08000d83   Thumb Code    34  stm32f2xx_rcc.o(.text)
    RCC_AHB3PeriphClockCmd                   0x08000da5   Thumb Code    34  stm32f2xx_rcc.o(.text)
    RCC_APB1PeriphClockCmd                   0x08000dc7   Thumb Code    34  stm32f2xx_rcc.o(.text)
    RCC_APB2PeriphClockCmd                   0x08000de9   Thumb Code    34  stm32f2xx_rcc.o(.text)
    RCC_AHB1PeriphResetCmd                   0x08000e0b   Thumb Code    34  stm32f2xx_rcc.o(.text)
    RCC_AHB2PeriphResetCmd                   0x08000e2d   Thumb Code    72  stm32f2xx_rcc.o(.text)
    RCC_AHB3PeriphResetCmd                   0x08000e75   Thumb Code    34  stm32f2xx_rcc.o(.text)
    RCC_APB1PeriphResetCmd                   0x08000e97   Thumb Code    34  stm32f2xx_rcc.o(.text)
    RCC_APB2PeriphResetCmd                   0x08000eb9   Thumb Code    34  stm32f2xx_rcc.o(.text)
    RCC_AHB1PeriphClockLPModeCmd             0x08000edb   Thumb Code    34  stm32f2xx_rcc.o(.text)
    RCC_AHB2PeriphClockLPModeCmd             0x08000efd   Thumb Code    34  stm32f2xx_rcc.o(.text)
    RCC_AHB3PeriphClockLPModeCmd             0x08000f1f   Thumb Code    34  stm32f2xx_rcc.o(.text)
    RCC_APB1PeriphClockLPModeCmd             0x08000f41   Thumb Code    34  stm32f2xx_rcc.o(.text)
    RCC_APB2PeriphClockLPModeCmd             0x08000f63   Thumb Code    34  stm32f2xx_rcc.o(.text)
    RCC_ITConfig                             0x08000f85   Thumb Code    38  stm32f2xx_rcc.o(.text)
    RCC_ClearFlag                            0x08000fab   Thumb Code    18  stm32f2xx_rcc.o(.text)
    RCC_GetITStatus                          0x08000fbd   Thumb Code    22  stm32f2xx_rcc.o(.text)
    RCC_ClearITPendingBit                    0x08000fd3   Thumb Code     8  stm32f2xx_rcc.o(.text)
    USART_DeInit                             0x08000fe1   Thumb Code   156  stm32f2xx_usart.o(.text)
    USART_Init                               0x0800107d   Thumb Code   204  stm32f2xx_usart.o(.text)
    USART_StructInit                         0x08001149   Thumb Code    24  stm32f2xx_usart.o(.text)
    USART_ClockInit                          0x08001161   Thumb Code    32  stm32f2xx_usart.o(.text)
    USART_ClockStructInit                    0x08001181   Thumb Code    12  stm32f2xx_usart.o(.text)
    USART_Cmd                                0x0800118d   Thumb Code    24  stm32f2xx_usart.o(.text)
    USART_SetPrescaler                       0x080011a5   Thumb Code    16  stm32f2xx_usart.o(.text)
    USART_OverSampling8Cmd                   0x080011b5   Thumb Code    22  stm32f2xx_usart.o(.text)
    USART_OneBitMethodCmd                    0x080011cb   Thumb Code    24  stm32f2xx_usart.o(.text)
    USART_SendData                           0x080011e3   Thumb Code     8  stm32f2xx_usart.o(.text)
    USART_ReceiveData                        0x080011eb   Thumb Code    10  stm32f2xx_usart.o(.text)
    USART_SetAddress                         0x080011f5   Thumb Code    18  stm32f2xx_usart.o(.text)
    USART_ReceiverWakeUpCmd                  0x08001207   Thumb Code    24  stm32f2xx_usart.o(.text)
    USART_WakeUpConfig                       0x0800121f   Thumb Code    18  stm32f2xx_usart.o(.text)
    USART_LINBreakDetectLengthConfig         0x08001231   Thumb Code    18  stm32f2xx_usart.o(.text)
    USART_LINCmd                             0x08001243   Thumb Code    24  stm32f2xx_usart.o(.text)
    USART_SendBreak                          0x0800125b   Thumb Code    10  stm32f2xx_usart.o(.text)
    USART_HalfDuplexCmd                      0x08001265   Thumb Code    24  stm32f2xx_usart.o(.text)
    USART_SetGuardTime                       0x0800127d   Thumb Code    16  stm32f2xx_usart.o(.text)
    USART_SmartCardCmd                       0x0800128d   Thumb Code    24  stm32f2xx_usart.o(.text)
    USART_SmartCardNACKCmd                   0x080012a5   Thumb Code    24  stm32f2xx_usart.o(.text)
    USART_IrDAConfig                         0x080012bd   Thumb Code    18  stm32f2xx_usart.o(.text)
    USART_IrDACmd                            0x080012cf   Thumb Code    24  stm32f2xx_usart.o(.text)
    USART_DMACmd                             0x080012e7   Thumb Code    24  stm32f2xx_usart.o(.text)
    USART_ITConfig                           0x080012ff   Thumb Code    74  stm32f2xx_usart.o(.text)
    USART_GetFlagStatus                      0x08001349   Thumb Code    26  stm32f2xx_usart.o(.text)
    USART_ClearFlag                          0x08001363   Thumb Code    18  stm32f2xx_usart.o(.text)
    USART_GetITStatus                        0x08001375   Thumb Code   108  stm32f2xx_usart.o(.text)
    USART_ClearITPendingBit                  0x080013e1   Thumb Code    30  stm32f2xx_usart.o(.text)
    ADC_DeInit                               0x08001401   Thumb Code    22  stm32f2xx_adc.o(.text)
    ADC_Init                                 0x08001417   Thumb Code    74  stm32f2xx_adc.o(.text)
    ADC_StructInit                           0x08001461   Thumb Code    20  stm32f2xx_adc.o(.text)
    ADC_CommonInit                           0x08001475   Thumb Code    44  stm32f2xx_adc.o(.text)
    ADC_CommonStructInit                     0x080014a1   Thumb Code    12  stm32f2xx_adc.o(.text)
    ADC_Cmd                                  0x080014ad   Thumb Code    22  stm32f2xx_adc.o(.text)
    ADC_AnalogWatchdogCmd                    0x080014c3   Thumb Code    16  stm32f2xx_adc.o(.text)
    ADC_AnalogWatchdogThresholdsConfig       0x080014d3   Thumb Code     6  stm32f2xx_adc.o(.text)
    ADC_AnalogWatchdogSingleChannelConfig    0x080014d9   Thumb Code    16  stm32f2xx_adc.o(.text)
    ADC_TempSensorVrefintCmd                 0x080014e9   Thumb Code    34  stm32f2xx_adc.o(.text)
    ADC_VBATCmd                              0x0800150b   Thumb Code    34  stm32f2xx_adc.o(.text)
    ADC_RegularChannelConfig                 0x0800152d   Thumb Code   184  stm32f2xx_adc.o(.text)
    ADC_SoftwareStartConv                    0x080015e5   Thumb Code    10  stm32f2xx_adc.o(.text)
    ADC_GetSoftwareStartConvStatus           0x080015ef   Thumb Code    20  stm32f2xx_adc.o(.text)
    ADC_EOCOnEachRegularChannelCmd           0x08001603   Thumb Code    22  stm32f2xx_adc.o(.text)
    ADC_ContinuousModeCmd                    0x08001619   Thumb Code    22  stm32f2xx_adc.o(.text)
    ADC_DiscModeChannelCountConfig           0x0800162f   Thumb Code    24  stm32f2xx_adc.o(.text)
    ADC_DiscModeCmd                          0x08001647   Thumb Code    22  stm32f2xx_adc.o(.text)
    ADC_GetConversionValue                   0x0800165d   Thumb Code     8  stm32f2xx_adc.o(.text)
    ADC_GetMultiModeConversionValue          0x08001665   Thumb Code     6  stm32f2xx_adc.o(.text)
    ADC_DMACmd                               0x0800166b   Thumb Code    22  stm32f2xx_adc.o(.text)
    ADC_DMARequestAfterLastTransferCmd       0x08001681   Thumb Code    22  stm32f2xx_adc.o(.text)
    ADC_MultiModeDMARequestAfterLastTransferCmd 0x08001697   Thumb Code    34  stm32f2xx_adc.o(.text)
    ADC_InjectedChannelConfig                0x080016b9   Thumb Code   130  stm32f2xx_adc.o(.text)
    ADC_InjectedSequencerLengthConfig        0x0800173b   Thumb Code    24  stm32f2xx_adc.o(.text)
    ADC_SetInjectedOffset                    0x08001753   Thumb Code    12  stm32f2xx_adc.o(.text)
    ADC_ExternalTrigInjectedConvConfig       0x0800175f   Thumb Code    16  stm32f2xx_adc.o(.text)
    ADC_ExternalTrigInjectedConvEdgeConfig   0x0800176f   Thumb Code    16  stm32f2xx_adc.o(.text)
    ADC_SoftwareStartInjectedConv            0x0800177f   Thumb Code    10  stm32f2xx_adc.o(.text)
    ADC_GetSoftwareStartInjectedConvCmdStatus 0x08001789   Thumb Code    20  stm32f2xx_adc.o(.text)
    ADC_AutoInjectedConvCmd                  0x0800179d   Thumb Code    22  stm32f2xx_adc.o(.text)
    ADC_InjectedDiscModeCmd                  0x080017b3   Thumb Code    22  stm32f2xx_adc.o(.text)
    ADC_GetInjectedConversionValue           0x080017c9   Thumb Code    18  stm32f2xx_adc.o(.text)
    ADC_ITConfig                             0x080017db   Thumb Code    32  stm32f2xx_adc.o(.text)
    ADC_GetFlagStatus                        0x080017fb   Thumb Code    46  stm32f2xx_adc.o(.text)
    ADC_ClearFlag                            0x08001829   Thumb Code     6  stm32f2xx_adc.o(.text)
    ADC_GetITStatus                          0x0800182f   Thumb Code    38  stm32f2xx_adc.o(.text)
    ADC_ClearITPendingBit                    0x08001855   Thumb Code    10  stm32f2xx_adc.o(.text)
    DMA_DeInit                               0x08001861   Thumb Code   324  stm32f2xx_dma.o(.text)
    DMA_Init                                 0x080019a5   Thumb Code    82  stm32f2xx_dma.o(.text)
    DMA_StructInit                           0x080019f7   Thumb Code    34  stm32f2xx_dma.o(.text)
    DMA_Cmd                                  0x08001a19   Thumb Code    22  stm32f2xx_dma.o(.text)
    DMA_PeriphIncOffsetSizeConfig            0x08001a2f   Thumb Code    22  stm32f2xx_dma.o(.text)
    DMA_FlowControllerConfig                 0x08001a45   Thumb Code    22  stm32f2xx_dma.o(.text)
    DMA_SetCurrDataCounter                   0x08001a5b   Thumb Code     4  stm32f2xx_dma.o(.text)
    DMA_GetCurrDataCounter                   0x08001a5f   Thumb Code     8  stm32f2xx_dma.o(.text)
    DMA_DoubleBufferModeConfig               0x08001a67   Thumb Code    24  stm32f2xx_dma.o(.text)
    DMA_DoubleBufferModeCmd                  0x08001a7f   Thumb Code    22  stm32f2xx_dma.o(.text)
    DMA_MemoryTargetConfig                   0x08001a95   Thumb Code    10  stm32f2xx_dma.o(.text)
    DMA_GetCurrentMemoryTarget               0x08001a9f   Thumb Code    20  stm32f2xx_dma.o(.text)
    DMA_GetCmdStatus                         0x08001ab3   Thumb Code    20  stm32f2xx_dma.o(.text)
    DMA_GetFIFOStatus                        0x08001ac7   Thumb Code    12  stm32f2xx_dma.o(.text)
    DMA_GetFlagStatus                        0x08001ad3   Thumb Code    54  stm32f2xx_dma.o(.text)
    DMA_ClearFlag                            0x08001b09   Thumb Code    40  stm32f2xx_dma.o(.text)
    DMA_ITConfig                             0x08001b31   Thumb Code    58  stm32f2xx_dma.o(.text)
    DMA_GetITStatus                          0x08001b6b   Thumb Code    82  stm32f2xx_dma.o(.text)
    DMA_ClearITPendingBit                    0x08001bbd   Thumb Code    40  stm32f2xx_dma.o(.text)
    NVIC_PriorityGroupConfig                 0x08001c05   Thumb Code    10  misc.o(.text)
    NVIC_Init                                0x08001c0f   Thumb Code   108  misc.o(.text)
    NVIC_SetVectorTable                      0x08001c7b   Thumb Code    14  misc.o(.text)
    NVIC_SystemLPConfig                      0x08001c89   Thumb Code    34  misc.o(.text)
    SysTick_CLKSourceConfig                  0x08001cab   Thumb Code    40  misc.o(.text)
    TIM_DeInit                               0x08001ce9   Thumb Code   346  stm32f2xx_tim.o(.text)
    TIM_TimeBaseInit                         0x08001e43   Thumb Code   104  stm32f2xx_tim.o(.text)
    TIM_TimeBaseStructInit                   0x08001eab   Thumb Code    18  stm32f2xx_tim.o(.text)
    TIM_PrescalerConfig                      0x08001ebd   Thumb Code     6  stm32f2xx_tim.o(.text)
    TIM_CounterModeConfig                    0x08001ec3   Thumb Code    18  stm32f2xx_tim.o(.text)
    TIM_SetCounter                           0x08001ed5   Thumb Code     4  stm32f2xx_tim.o(.text)
    TIM_SetAutoreload                        0x08001ed9   Thumb Code     4  stm32f2xx_tim.o(.text)
    TIM_GetCounter                           0x08001edd   Thumb Code     6  stm32f2xx_tim.o(.text)
    TIM_GetPrescaler                         0x08001ee3   Thumb Code     6  stm32f2xx_tim.o(.text)
    TIM_UpdateDisableConfig                  0x08001ee9   Thumb Code    24  stm32f2xx_tim.o(.text)
    TIM_UpdateRequestConfig                  0x08001f01   Thumb Code    24  stm32f2xx_tim.o(.text)
    TIM_ARRPreloadConfig                     0x08001f19   Thumb Code    24  stm32f2xx_tim.o(.text)
    TIM_SelectOnePulseMode                   0x08001f31   Thumb Code    18  stm32f2xx_tim.o(.text)
    TIM_SetClockDivision                     0x08001f43   Thumb Code    18  stm32f2xx_tim.o(.text)
    TIM_Cmd                                  0x08001f55   Thumb Code    24  stm32f2xx_tim.o(.text)
    TIM_OC1Init                              0x08001f6d   Thumb Code   114  stm32f2xx_tim.o(.text)
    TIM_OC2Init                              0x08001fdf   Thumb Code   146  stm32f2xx_tim.o(.text)
    TIM_OC3Init                              0x08002071   Thumb Code   196  stm32f2xx_tim.o(.text)
    TIM_OC4Init                              0x08002135   Thumb Code   104  stm32f2xx_tim.o(.text)
    TIM_OCStructInit                         0x0800219d   Thumb Code    20  stm32f2xx_tim.o(.text)
    TIM_SelectOCxM                           0x080021b1   Thumb Code    86  stm32f2xx_tim.o(.text)
    TIM_SetCompare1                          0x08002207   Thumb Code     4  stm32f2xx_tim.o(.text)
    TIM_SetCompare2                          0x0800220b   Thumb Code     4  stm32f2xx_tim.o(.text)
    TIM_SetCompare3                          0x0800220f   Thumb Code     4  stm32f2xx_tim.o(.text)
    TIM_SetCompare4                          0x08002213   Thumb Code     4  stm32f2xx_tim.o(.text)
    TIM_ForcedOC1Config                      0x08002217   Thumb Code    18  stm32f2xx_tim.o(.text)
    TIM_ForcedOC2Config                      0x08002229   Thumb Code    22  stm32f2xx_tim.o(.text)
    TIM_ForcedOC3Config                      0x0800223f   Thumb Code    18  stm32f2xx_tim.o(.text)
    TIM_ForcedOC4Config                      0x08002251   Thumb Code    22  stm32f2xx_tim.o(.text)
    TIM_OC1PreloadConfig                     0x08002267   Thumb Code    18  stm32f2xx_tim.o(.text)
    TIM_OC2PreloadConfig                     0x08002279   Thumb Code    22  stm32f2xx_tim.o(.text)
    TIM_OC3PreloadConfig                     0x0800228f   Thumb Code    18  stm32f2xx_tim.o(.text)
    TIM_OC4PreloadConfig                     0x080022a1   Thumb Code    22  stm32f2xx_tim.o(.text)
    TIM_OC1FastConfig                        0x080022b7   Thumb Code    18  stm32f2xx_tim.o(.text)
    TIM_OC2FastConfig                        0x080022c9   Thumb Code    22  stm32f2xx_tim.o(.text)
    TIM_OC3FastConfig                        0x080022df   Thumb Code    18  stm32f2xx_tim.o(.text)
    TIM_OC4FastConfig                        0x080022f1   Thumb Code    22  stm32f2xx_tim.o(.text)
    TIM_ClearOC1Ref                          0x08002307   Thumb Code    18  stm32f2xx_tim.o(.text)
    TIM_ClearOC2Ref                          0x08002319   Thumb Code    20  stm32f2xx_tim.o(.text)
    TIM_ClearOC3Ref                          0x0800232d   Thumb Code    18  stm32f2xx_tim.o(.text)
    TIM_ClearOC4Ref                          0x0800233f   Thumb Code    20  stm32f2xx_tim.o(.text)
    TIM_OC1PolarityConfig                    0x08002353   Thumb Code    18  stm32f2xx_tim.o(.text)
    TIM_OC1NPolarityConfig                   0x08002365   Thumb Code    18  stm32f2xx_tim.o(.text)
    TIM_OC2PolarityConfig                    0x08002377   Thumb Code    22  stm32f2xx_tim.o(.text)
    TIM_OC2NPolarityConfig                   0x0800238d   Thumb Code    22  stm32f2xx_tim.o(.text)
    TIM_OC3PolarityConfig                    0x080023a3   Thumb Code    22  stm32f2xx_tim.o(.text)
    TIM_OC3NPolarityConfig                   0x080023b9   Thumb Code    22  stm32f2xx_tim.o(.text)
    TIM_OC4PolarityConfig                    0x080023cf   Thumb Code    22  stm32f2xx_tim.o(.text)
    TIM_CCxCmd                               0x080023e5   Thumb Code    34  stm32f2xx_tim.o(.text)
    TIM_CCxNCmd                              0x08002407   Thumb Code    34  stm32f2xx_tim.o(.text)
    TIM_SetIC4Prescaler                      0x08002429   Thumb Code    22  stm32f2xx_tim.o(.text)
    TIM_SetIC3Prescaler                      0x08002483   Thumb Code    18  stm32f2xx_tim.o(.text)
    TIM_SetIC2Prescaler                      0x080024d5   Thumb Code    22  stm32f2xx_tim.o(.text)
    TIM_SetIC1Prescaler                      0x0800252f   Thumb Code    18  stm32f2xx_tim.o(.text)
    TIM_ICInit                               0x08002585   Thumb Code   110  stm32f2xx_tim.o(.text)
    TIM_ICStructInit                         0x080025f3   Thumb Code    18  stm32f2xx_tim.o(.text)
    TIM_PWMIConfig                           0x08002605   Thumb Code   124  stm32f2xx_tim.o(.text)
    TIM_GetCapture1                          0x08002681   Thumb Code     6  stm32f2xx_tim.o(.text)
    TIM_GetCapture2                          0x08002687   Thumb Code     6  stm32f2xx_tim.o(.text)
    TIM_GetCapture3                          0x0800268d   Thumb Code     6  stm32f2xx_tim.o(.text)
    TIM_GetCapture4                          0x08002693   Thumb Code     6  stm32f2xx_tim.o(.text)
    TIM_BDTRConfig                           0x08002699   Thumb Code    32  stm32f2xx_tim.o(.text)
    TIM_BDTRStructInit                       0x080026b9   Thumb Code    18  stm32f2xx_tim.o(.text)
    TIM_CtrlPWMOutputs                       0x080026cb   Thumb Code    30  stm32f2xx_tim.o(.text)
    TIM_SelectCOM                            0x080026e9   Thumb Code    24  stm32f2xx_tim.o(.text)
    TIM_CCPreloadControl                     0x08002701   Thumb Code    24  stm32f2xx_tim.o(.text)
    TIM_ITConfig                             0x08002719   Thumb Code    24  stm32f2xx_tim.o(.text)
    TIM_GenerateEvent                        0x08002731   Thumb Code     4  stm32f2xx_tim.o(.text)
    TIM_GetFlagStatus                        0x08002735   Thumb Code    18  stm32f2xx_tim.o(.text)
    TIM_ClearFlag                            0x08002747   Thumb Code     6  stm32f2xx_tim.o(.text)
    TIM_GetITStatus                          0x0800274d   Thumb Code    34  stm32f2xx_tim.o(.text)
    TIM_ClearITPendingBit                    0x0800276f   Thumb Code     6  stm32f2xx_tim.o(.text)
    TIM_DMAConfig                            0x08002775   Thumb Code    10  stm32f2xx_tim.o(.text)
    TIM_DMACmd                               0x0800277f   Thumb Code    24  stm32f2xx_tim.o(.text)
    TIM_SelectCCDMA                          0x08002797   Thumb Code    24  stm32f2xx_tim.o(.text)
    TIM_InternalClockConfig                  0x080027af   Thumb Code    12  stm32f2xx_tim.o(.text)
    TIM_SelectInputTrigger                   0x080027bb   Thumb Code    18  stm32f2xx_tim.o(.text)
    TIM_ITRxExternalClockConfig              0x080027cd   Thumb Code    24  stm32f2xx_tim.o(.text)
    TIM_TIxExternalClockConfig               0x080027e5   Thumb Code    62  stm32f2xx_tim.o(.text)
    TIM_ETRConfig                            0x08002823   Thumb Code    24  stm32f2xx_tim.o(.text)
    TIM_ETRClockMode1Config                  0x0800283b   Thumb Code    54  stm32f2xx_tim.o(.text)
    TIM_ETRClockMode2Config                  0x08002871   Thumb Code    32  stm32f2xx_tim.o(.text)
    TIM_SelectOutputTrigger                  0x08002891   Thumb Code    18  stm32f2xx_tim.o(.text)
    TIM_SelectSlaveMode                      0x080028a3   Thumb Code    18  stm32f2xx_tim.o(.text)
    TIM_SelectMasterSlaveMode                0x080028b5   Thumb Code    18  stm32f2xx_tim.o(.text)
    TIM_EncoderInterfaceConfig               0x080028c7   Thumb Code    62  stm32f2xx_tim.o(.text)
    TIM_SelectHallSensor                     0x08002905   Thumb Code    24  stm32f2xx_tim.o(.text)
    TIM_RemapConfig                          0x0800291d   Thumb Code     6  stm32f2xx_tim.o(.text)
    SystemInit                               0x080029cf   Thumb Code    74  system_stm32f2xx.o(.text)
    SystemCoreClockUpdate                    0x08002a19   Thumb Code   174  system_stm32f2xx.o(.text)
    __aeabi_fdiv                             0x08002af1   Thumb Code   128  fdiv.o(.text)
    __aeabi_dmul                             0x08002b71   Thumb Code   224  dmul.o(.text)
    __aeabi_ui2f                             0x08002c51   Thumb Code    10  ffltui.o(.text)
    __aeabi_f2d                              0x08002c5b   Thumb Code    44  f2d.o(.text)
    __aeabi_d2f                              0x08002c87   Thumb Code    56  d2f.o(.text)
    __aeabi_uidiv                            0x08002cbf   Thumb Code     0  uidiv.o(.text)
    __aeabi_uidivmod                         0x08002cbf   Thumb Code    44  uidiv.o(.text)
    __aeabi_uldivmod                         0x08002ceb   Thumb Code    98  uldiv.o(.text)
    __I$use$fp                               0x08002d4d   Thumb Code     0  iusefp.o(.text)
    _float_round                             0x08002d4d   Thumb Code    18  fepilogue.o(.text)
    _float_epilogue                          0x08002d5f   Thumb Code    90  fepilogue.o(.text)
    _double_round                            0x08002db9   Thumb Code    26  depilogue.o(.text)
    _double_epilogue                         0x08002dd3   Thumb Code   164  depilogue.o(.text)
    __aeabi_dadd                             0x08002e77   Thumb Code   320  dadd.o(.text)
    __aeabi_dsub                             0x08002fb7   Thumb Code     6  dadd.o(.text)
    __aeabi_drsub                            0x08002fbd   Thumb Code     6  dadd.o(.text)
    __aeabi_ddiv                             0x08002fc3   Thumb Code   222  ddiv.o(.text)
    __aeabi_d2ulz                            0x080030a1   Thumb Code    48  dfixul.o(.text)
    __aeabi_cdrcmple                         0x080030d1   Thumb Code    38  cdrcmple.o(.text)
    __scatterload                            0x080030f9   Thumb Code    28  init.o(.text)
    __scatterload_rt2                        0x080030f9   Thumb Code     0  init.o(.text)
    __aeabi_llsl                             0x0800311d   Thumb Code    30  llshl.o(.text)
    _ll_shift_l                              0x0800311d   Thumb Code     0  llshl.o(.text)
    __aeabi_llsr                             0x0800313b   Thumb Code    32  llushr.o(.text)
    _ll_ushift_r                             0x0800313b   Thumb Code     0  llushr.o(.text)
    __aeabi_lasr                             0x0800315b   Thumb Code    36  llsshr.o(.text)
    _ll_sshift_r                             0x0800315b   Thumb Code     0  llsshr.o(.text)
    __0printf                                0x08003181   Thumb Code    22  printfa.o(i.__0printf)
    __1printf                                0x08003181   Thumb Code     0  printfa.o(i.__0printf)
    __2printf                                0x08003181   Thumb Code     0  printfa.o(i.__0printf)
    __c89printf                              0x08003181   Thumb Code     0  printfa.o(i.__0printf)
    printf                                   0x08003181   Thumb Code     0  printfa.o(i.__0printf)
    __scatterload_copy                       0x080031a1   Thumb Code    14  handlers.o(i.__scatterload_copy)
    __scatterload_null                       0x080031af   Thumb Code     2  handlers.o(i.__scatterload_null)
    __scatterload_zeroinit                   0x080031b1   Thumb Code    14  handlers.o(i.__scatterload_zeroinit)
    Region$$Table$$Base                      0x08003abc   Number         0  anon$$obj.o(Region$$Table)
    Region$$Table$$Limit                     0x08003adc   Number         0  anon$$obj.o(Region$$Table)
    ADC_ConvertedValue                       0x20000000   Data           2  main.o(.data)
    AD_value                                 0x20000004   Data           4  main.o(.data)
    __stdout                                 0x20000008   Data           4  usart.o(.data)
    SystemCoreClock                          0x20000024   Data           4  system_stm32f2xx.o(.data)
    AHBPrescTable                            0x20000028   Data          16  system_stm32f2xx.o(.data)
    __initial_sp                             0x20000438   Data           0  startup_stm32f2xx.o(STACK)



==============================================================================

Memory Map of the image

  Image Entry point : 0x08000185

  Load Region LR_IROM1 (Base: 0x08000000, Size: 0x00003b14, Max: 0x00100000, ABSOLUTE)

    Execution Region ER_IROM1 (Base: 0x08000000, Size: 0x00003adc, Max: 0x00100000, ABSOLUTE)

    Base Addr    Size         Type   Attr      Idx    E Section Name        Object

    0x08000000   0x00000184   Data   RO          302    RESET               startup_stm32f2xx.o
    0x08000184   0x00000000   Code   RO          422  * .ARM.Collect$$$$00000000  mc_w.l(entry.o)
    0x08000184   0x00000004   Code   RO          696    .ARM.Collect$$$$00000001  mc_w.l(entry2.o)
    0x08000188   0x00000004   Code   RO          699    .ARM.Collect$$$$00000004  mc_w.l(entry5.o)
    0x0800018c   0x00000000   Code   RO          701    .ARM.Collect$$$$00000008  mc_w.l(entry7b.o)
    0x0800018c   0x00000008   Code   RO          702    .ARM.Collect$$$$00000009  mc_w.l(entry8.o)
    0x08000194   0x00000004   Code   RO          697    .ARM.Collect$$$$00002712  mc_w.l(entry2.o)
    0x08000198   0x00000268   Code   RO            1    .text               main.o
    0x08000400   0x00000078   Code   RO          124    .text               stm32f2xx_it.o
    0x08000478   0x00000100   Code   RO          237    .text               usart.o
    0x08000578   0x0000009a   Code   RO          256    .text               stm32f10x_systick.o
    0x08000612   0x00000002   PAD
    0x08000614   0x000000cc   Code   RO          271    .text               systick.o
    0x080006e0   0x0000010c   Code   RO          288    .text               tim_conf.o
    0x080007ec   0x00000024   Code   RO          303    .text               startup_stm32f2xx.o
    0x08000810   0x0000024c   Code   RO          308    .text               stm32f2xx_gpio.o
    0x08000a5c   0x00000584   Code   RO          320    .text               stm32f2xx_rcc.o
    0x08000fe0   0x0000041e   Code   RO          334    .text               stm32f2xx_usart.o
    0x080013fe   0x00000002   PAD
    0x08001400   0x0000045e   Code   RO          346    .text               stm32f2xx_adc.o
    0x0800185e   0x00000002   PAD
    0x08001860   0x000003a4   Code   RO          358    .text               stm32f2xx_dma.o
    0x08001c04   0x000000e4   Code   RO          370    .text               misc.o
    0x08001ce8   0x00000c3a   Code   RO          382    .text               stm32f2xx_tim.o
    0x08002922   0x00000002   PAD
    0x08002924   0x000001cc   Code   RO          404    .text               system_stm32f2xx.o
    0x08002af0   0x00000080   Code   RO          686    .text               mf_w.l(fdiv.o)
    0x08002b70   0x000000e0   Code   RO          688    .text               mf_w.l(dmul.o)
    0x08002c50   0x0000000a   Code   RO          690    .text               mf_w.l(ffltui.o)
    0x08002c5a   0x0000002c   Code   RO          692    .text               mf_w.l(f2d.o)
    0x08002c86   0x00000038   Code   RO          694    .text               mf_w.l(d2f.o)
    0x08002cbe   0x0000002c   Code   RO          703    .text               mc_w.l(uidiv.o)
    0x08002cea   0x00000062   Code   RO          705    .text               mc_w.l(uldiv.o)
    0x08002d4c   0x00000000   Code   RO          707    .text               mc_w.l(iusefp.o)
    0x08002d4c   0x0000006c   Code   RO          708    .text               mf_w.l(fepilogue.o)
    0x08002db8   0x000000be   Code   RO          710    .text               mf_w.l(depilogue.o)
    0x08002e76   0x0000014c   Code   RO          712    .text               mf_w.l(dadd.o)
    0x08002fc2   0x000000de   Code   RO          714    .text               mf_w.l(ddiv.o)
    0x080030a0   0x00000030   Code   RO          716    .text               mf_w.l(dfixul.o)
    0x080030d0   0x00000028   Code   RO          718    .text               mf_w.l(cdrcmple.o)
    0x080030f8   0x00000024   Code   RO          720    .text               mc_w.l(init.o)
    0x0800311c   0x0000001e   Code   RO          722    .text               mc_w.l(llshl.o)
    0x0800313a   0x00000020   Code   RO          724    .text               mc_w.l(llushr.o)
    0x0800315a   0x00000024   Code   RO          726    .text               mc_w.l(llsshr.o)
    0x0800317e   0x00000002   PAD
    0x08003180   0x00000020   Code   RO          658    i.__0printf         mc_w.l(printfa.o)
    0x080031a0   0x0000000e   Code   RO          730    i.__scatterload_copy  mc_w.l(handlers.o)
    0x080031ae   0x00000002   Code   RO          731    i.__scatterload_null  mc_w.l(handlers.o)
    0x080031b0   0x0000000e   Code   RO          732    i.__scatterload_zeroinit  mc_w.l(handlers.o)
    0x080031be   0x00000002   PAD
    0x080031c0   0x00000158   Code   RO          665    i._fp_digits        mc_w.l(printfa.o)
    0x08003318   0x00000704   Code   RO          666    i._printf_core      mc_w.l(printfa.o)
    0x08003a1c   0x00000026   Code   RO          667    i._printf_post_padding  mc_w.l(printfa.o)
    0x08003a42   0x00000030   Code   RO          668    i._printf_pre_padding  mc_w.l(printfa.o)
    0x08003a72   0x00000002   PAD
    0x08003a74   0x00000045   Data   RO            2    .constdata          main.o
    0x08003ab9   0x00000003   PAD
    0x08003abc   0x00000020   Data   RO          728    Region$$Table       anon$$obj.o


    Execution Region RW_IRAM1 (Base: 0x20000000, Size: 0x00000438, Max: 0x00020000, ABSOLUTE)

    Base Addr    Size         Type   Attr      Idx    E Section Name        Object

    0x20000000   0x00000008   Data   RW            3    .data               main.o
    0x20000008   0x00000004   Data   RW          238    .data               usart.o
    0x2000000c   0x00000005   Data   RW          272    .data               systick.o
    0x20000011   0x00000010   Data   RW          321    .data               stm32f2xx_rcc.o
    0x20000021   0x00000003   PAD
    0x20000024   0x00000014   Data   RW          405    .data               system_stm32f2xx.o
    0x20000038   0x00000400   Zero   RW          300    STACK               startup_stm32f2xx.o


==============================================================================

Image component sizes


      Code (inc. data)   RO Data    RW Data    ZI Data      Debug   Object Name

       616         80         69          8          0     244275   main.o
       228         22          0          0          0       1793   misc.o
        36          8        388          0       1024        904   startup_stm32f2xx.o
       154          0          0          0          0       1357   stm32f10x_systick.o
      1118         28          0          0          0      10426   stm32f2xx_adc.o
       932         32          0          0          0       6325   stm32f2xx_dma.o
       588         36          0          0          0       3937   stm32f2xx_gpio.o
       120         62          0          0          0     277764   stm32f2xx_it.o
      1412         48          0         16          0      10899   stm32f2xx_rcc.o
      3130         62          0          0          0      22888   stm32f2xx_tim.o
      1054         24          0          0          0       7704   stm32f2xx_usart.o
       460         42          0         20          0       1791   system_stm32f2xx.o
       204         18          0          5          0       1040   systick.o
       268          8          0          0          0        604   tim_conf.o
       256          8          0          4          0       2718   usart.o

    ----------------------------------------------------------------------
     10584        478        492         56       1024     594425   Object Totals
         0          0         32          0          0          0   (incl. Generated)
         8          0          3          3          0          0   (incl. Padding)

    ----------------------------------------------------------------------

      Code (inc. data)   RO Data    RW Data    ZI Data      Debug   Library Member Name

         0          0          0          0          0          0   entry.o
         8          4          0          0          0          0   entry2.o
         4          0          0          0          0          0   entry5.o
         0          0          0          0          0          0   entry7b.o
         8          4          0          0          0          0   entry8.o
        30          0          0          0          0          0   handlers.o
        36          8          0          0          0         68   init.o
         0          0          0          0          0          0   iusefp.o
        30          0          0          0          0         68   llshl.o
        36          0          0          0          0         68   llsshr.o
        32          0          0          0          0         68   llushr.o
      2258         88          0          0          0        444   printfa.o
        44          0          0          0          0         80   uidiv.o
        98          0          0          0          0         92   uldiv.o
        40          2          0          0          0         68   cdrcmple.o
        56          0          0          0          0         88   d2f.o
       332          0          0          0          0        148   dadd.o
       222          0          0          0          0        100   ddiv.o
       190          0          0          0          0        176   depilogue.o
        48          0          0          0          0         68   dfixul.o
       224          0          0          0          0         96   dmul.o
        44          0          0          0          0         68   f2d.o
       128          0          0          0          0         88   fdiv.o
       108          0          0          0          0        168   fepilogue.o
        10          0          0          0          0         68   ffltui.o

    ----------------------------------------------------------------------
      3992        106          0          0          0       2024   Library Totals
         6          0          0          0          0          0   (incl. Padding)

    ----------------------------------------------------------------------

      Code (inc. data)   RO Data    RW Data    ZI Data      Debug   Library Name

      2584        104          0          0          0        888   mc_w.l
      1402          2          0          0          0       1136   mf_w.l

    ----------------------------------------------------------------------
      3992        106          0          0          0       2024   Library Totals

    ----------------------------------------------------------------------

==============================================================================


      Code (inc. data)   RO Data    RW Data    ZI Data      Debug   

     14576        584        492         56       1024     593745   Grand Totals
     14576        584        492         56       1024     593745   ELF Image Totals
     14576        584        492         56          0          0   ROM Totals

==============================================================================

    Total RO  Size (Code + RO Data)                15068 (  14.71kB)
    Total RW  Size (RW Data + ZI Data)              1080 (   1.05kB)
    Total ROM Size (Code + RO Data + RW Data)      15124 (  14.77kB)

==============================================================================

